:1000000000000120BD0C00002D0D00002F0D000090
:10001000310D0000330D0000350D00000000000020
:10002000000000000000000000000000370D00008C
:10003000390D0000000000003B0D00003D0D0000E8
:100040003F0D00003F0D00003F0D00003F0D000080
:100050003F0D00003F0D00003F0D00003F0D000070
:100060003F0D00003F0D00003F0D00003F0D000060
:100070003F0D00003F0D00003F0D00003F0D000050
:100080003F0D00003F0D00003F0D00003F0D000040
:100090003F0D00003F0D00003F0D00003F0D000030
:1000A0003F0D00003F0D00003F0D00003F0D000020
:1000B0003F0D00003F0D00000000000000000000A8
:1000C0003F0D00003F0D00003F0D00003F0D000000
:1000D0003F0D00003F0D00003F0D0000000000003C
:1000E0000000000000000000000000000000000010
:1000F0000000000000000000000000000000000000
:1001000000000000000000000000000000000000EF
:1001100000000000000000000000000000000000DF
:1001200000000000000000000000000000000000CF
:1001300000000000000000000000000000000000BF
:1001400000000000000000000000000000000000AF
:10015000000000000000000000000000000000009F
:10016000000000000000000000000000000000008F
:10017000000000000000000000000000000000007F
:10018000000000000000000000000000000000006F
:10019000000000000000000000000000000000005F
:1001A000000000000000000000000000000000004F
:1001B000000000000000000000000000000000003F
:1001C000000000000000000000000000000000002F
:1001D000000000000000000000000000000000001F
:1001E000000000000000000000000000000000000F
:1001F00000000000000000000000000000000000FF
:08020000940000000100000061
:100208000348044B834202D0034B03B1184770479D
:100218000800002008000020000000000548064BE8
:100228001B1AD90F01EBA301491002D0034B03B1EC
:100238001847704708000020080000200000000050
:1002480010B5064C237843B9FFF7DAFF044B13B116
:100258000448AFF300800123237010BD080000207C
:10026800000000000010000008B5054B1BB105494F
:100278000548AFF30080BDE80840FFF7CFBF00BFD7
:10028800000000000C00002000100000A3F5803AD8
:10029800704700BF174B002B08BF134B9D46FFF755
:1002A800F5FF00218B460F461348144A121A00F036
:1002B80051FD0E4B002B00D098470D4B002B00D062
:1002C80098470020002104000D000D48002802D0A6
:1002D8000C4800F023FE00F08BFD2000290000F000
:1002E8009FF800F029FD00BF000008000000000092
:1002F800000000000000012008000020C0010020CC
:10030800250F0000310F000080B483B000AF112327
:100318007B6010E001227B689A404FF0A043C3F84D
:10032800182501227B689A404FF0A043C3F808259E
:100338007B6801337B607B68142BEBDD00BF00BF5B
:100348000C37BD4680BC704780B400AF4FF0A04367
:100358000C22C3F834274FF0A0430C22C3F83827E7
:1003680000BFBD4680BC704780B400AF0B4B0C4A41
:10037800C3F81025094B0B4AC3F81425074B0A4A42
:10038800C3F81825054B094AC3F82025034B084A2A
:10039800C3F8242500BFBD4680BC704700600040FC
:1003A800010D0200031103000312030003130300ED
:1003B8000314030080B400AF134B144AC3F810258C
:1003C800114B134AC3F814250F4B104AC3F81825CC
:1003D8000D4B104AC3F81C250B4B0C4AC3F82025BB
:1003E800094B0D4AC3F82425074B084AC3F82825AA
:1003F800054B0A4AC3F82C25034B0F22C3F80425E2
:1004080000BFBD4680BC704700F00140006100405D
:100418000460004008600040106000401460004024
:1004280080B500AFFFF770FFFFF78EFFFFF79CFF67
:10043800FFF7C0FF00BFFDE780B483B000AF1E4BDD
:100448001B68B3F1FF3F0AD11C4B1B68DBB27B6012
:100458001B4B1B681B0903F00F033B6005E0164BA1
:100468001B687B60174B1B683B607B68062B1DD1A4
:100478003B68033B042B17D801A252F823F000BFB6
:100488009D040000A1040000A5040000A9040000C8
:10049800AD04000001230AE0012308E0012306E07F
:1004A800012304E0012302E0012300E000231846B1
:1004B8000C37BD4680BC704730010010E00F00F0DB
:1004C800E80F00F03401001080B483B000AF184B7F
:1004D8001B68DBB27B60174B1B681B0903F00F031B
:1004E8003B607B68062B1DD13B68033B042B17D868
:1004F80001A252F823F000BF1505000019050000FD
:100508001D050000210500002505000001230AE063
:10051800002308E0002306E0002304E0002302E0B3
:10052800002300E0002318460C37BD4680BC704706
:10053800E00F00F0E80F00F080B483B000AF1E4B6E
:100548001B68B3F1FF3F0AD11C4B1B68DBB27B6011
:100558001B4B1B681B0903F00F033B6005E0164BA0
:100568001B687B60174B1B683B607B68062B1DD1A3
:100578003B68033B042B17D801A252F823F000BFB5
:100588009D050000A1050000A5050000A9050000C3
:10059800AD05000001230AE0012308E0012306E07D
:1005A800012304E0012302E0012300E000231846B0
:1005B8000C37BD4680BC704730010010E00F00F0DA
:1005C800E80F00F03401001080B483B000AF184B7E
:1005D8001B68DBB27B60174B1B681B0903F00F031A
:1005E8003B607B68062B1DD13B68033B042B17D867
:1005F80001A252F823F000BF1506000019060000FA
:100608001D060000210600002506000001230AE05F
:10061800002308E0002306E0002304E0002302E0B2
:10062800002300E0002318460C37BD4680BC704705
:10063800E00F00F0E80F00F080B483B000AF1E4B6D
:100648001B68B3F1FF3F0AD11C4B1B68DBB27B6010
:100658001B4B1B681B0903F00F033B6005E0164B9F
:100668001B687B60174B1B683B607B68062B1DD1A2
:100678003B68033B042B17D801A252F823F000BFB4
:100688009D060000A1060000A5060000A9060000BE
:10069800AD06000001230AE0012308E0012306E07B
:1006A800012304E0012302E0012300E000231846AF
:1006B8000C37BD4680BC704730010010E00F00F0D9
:1006C800E80F00F03401001080B483B000AF184B7D
:1006D8001B68DBB27B60174B1B681B0903F00F0319
:1006E8003B607B68062B1DD13B68033B042B17D866
:1006F80001A252F823F000BF1507000019070000F7
:100708001D070000210700002507000001230AE05B
:10071800002308E0002306E0002304E0002302E0B1
:10072800002300E0002318460C37BD4680BC704704
:10073800E00F00F0E80F00F080B483B000AF184B72
:100748001B68DBB27B60174B1B681B0903F00F03A8
:100758003B607B68062B1DD13B68033B042B17D8F5
:1007680001A252F823F000BF8507000089070000A6
:100778008D070000910700009507000001230AE09B
:10078800002308E0002306E0002304E0002302E041
:10079800002300E0002318460C37BD4680BC704794
:1007A800E00F00F0E80F00F080B483B000AF1E4BFC
:1007B8001B68B3F1FF3F0AD11C4B1B68DBB27B609F
:1007C8001B4B1B681B0903F00F033B6005E0164B2E
:1007D8001B687B60174B1B683B607B68062B1DD131
:1007E8003B68033B042B17D801A252F823F000BF43
:1007F8000D08000011080000150800001908000085
:100808001D08000000230AE0002308E0012306E099
:10081800012304E0012302E0012300E0002318463D
:100828000C37BD4680BC704730010010E00F00F067
:10083800E80F00F03401001080B483B000AF1E4B05
:100848001B68B3F1FF3F0AD11C4B1B68DBB27B600E
:100858001B4B1B681B0903F00F033B6005E0164B9D
:100868001B687B60174B1B683B607B68062B1DD1A0
:100878003B68033B042B17D801A252F823F000BFB2
:100888009D080000A1080000A5080000A9080000B4
:10089800AD08000001230AE0012308E0012306E077
:1008A800012304E0012302E0012300E000231846AD
:1008B8000C37BD4680BC704730010010E00F00F0D7
:1008C800E80F00F03401001080B483B000AF1E4B75
:1008D8001B68B3F1FF3F0AD11C4B1B68DBB27B607E
:1008E8001B4B1B681B0903F00F033B6005E0164B0D
:1008F8001B687B60174B1B683B607B68062B1DD110
:100908003B68033B042B17D801A252F823F000BF21
:100918002D090000310900003509000039090000DF
:100928003D09000001230AE0012308E0012306E055
:10093800012304E0012302E0012300E0002318461C
:100948000C37BD4680BC704730010010E00F00F046
:10095800E80F00F03401001080B483B000AF164BEC
:100968001B687B60154B1B683B607B68062B1DD1A1
:100978003B68033B042B17D801A252F823F000BFB1
:100988009D090000A1090000A5090000A9090000AF
:10099800AD09000000230AE0002308E0002306E078
:1009A800012304E0012302E0012300E000231846AC
:1009B8000C37BD4680BC7047300100103401001070
:1009C80080B483B000AF164B1B687B60154B1B6867
:1009D8003B607B68062B1DD13B68033B042B17D873
:1009E80001A252F823F000BF050A0000090A00001E
:1009F8000D0A0000110A0000150A000000230AE091
:100A0800002308E0002306E0002304E0012302E0BD
:100A1800012300E0002318460C37BD4680BC704710
:100A2800300100103401001080B500AFFFF7C8FF97
:100A38000346002B07D04FF010234FF08042D3F825
:100A48000832C2F8583500BF80BD000080B400AF3E
:100A5800034B044A1A6000BFBD4680BC704700BF04
:100A6800000000200090D00380B500AFFFF7E4FC41
:100A78000346002B06D07F4B1B681B0A7E4A03F0F7
:100A88001F031360FFF720FD0346002B02D07B4BAA
:100A98007B4A1A60FFF750FD0346002B06D0794BBE
:100AA8001B685B0B784A03F007031360FFF78CFDA4
:100AB8000346002B05D0754BDB68744A23F080731E
:100AC800D360FFF7B9FD0346002B0ED04FF08043EB
:100AD8000022C3F80C214FF080430022C3F81021F4
:100AE8004FF080430022C3F83825FFF7EDFD034699
:100AF800002B02D0664B03221A60FFF71DFE034647
:100B0800002B0BD0634B05221A60634B01221A603D
:100B1800624B00221A60624B3F221A60FFF744FEC4
:100B28000346002B76D04FF080535E4AD3F8043446
:100B3800C2F820354FF080535A4AD3F80834C2F827
:100B480024354FF08053574AD3F80C34C2F828356F
:100B58004FF08053534AD3F81034C2F82C354FF075
:100B68008053504AD3F81434C2F830354FF08053CC
:100B78004C4AD3F81834C2F834354FF08053494AF8
:100B8800D3F81C34C2F840354FF08053454AD3F8A7
:100B98002034C2F844354FF08053424AD3F8243405
:100BA800C2F848354FF080533E4AD3F82834C2F88B
:100BB8004C354FF080533B4AD3F82C34C2F85035AB
:100BC8004FF08053374AD3F83034C2F854354FF0D9
:100BD8008053344AD3F83434C2F860354FF0805328
:100BE800304AD3F83834C2F864354FF080532D4A70
:100BF800D3F83C34C2F868354FF08053294AD3F80B
:100C08004034C2F86C354FF08053264AD3F8443448
:100C1800C2F87035FFF710FE0346002B05D0224BB3
:100C28001B68224A03F04F031360FFF74DFE03468B
:100C3800002B0DD04FF08043D3F8003403F00103AC
:100C4800002B05D04FF080436FF00102C3F8002459
:100C5800FFF782FE0346002B05D0154B1B68144A8C
:100C680043F480631360FFF7DFFEFFF7EFFE00BF7A
:100C780080BD00BF240300104035014074C0074008
:100C88000DF0ADBA440200103C050040F0ED00E064
:100C9800A0050040105600408856004018560040F5
:100CA8001456004000C0004058020010E40E0040F6
:100CB8003C1700400F49104A104B00F010F810493B
:100CC800104A114B00F00BF81049114A114B00F073
:100CD80006F81149114A124B00F001F806E0521AC1
:100CE80003DD043A98588850FBDC7047FFF7BCFED8
:100CF800FFF7D0FA00000020080000204C10000088
:100D080008000020080000205410000008000020FF
:100D180008000020541000000800002008000020EF
:100D280054100000FEE7FEE7FEE7FEE7FEE7FEE7F9
:100D3800FEE7FEE7FEE7FEE708B50021044600F0FF
:100D48008DF8034B1B6803B19847204600F040F923
:100D580024000020830730B546D08418844604E078
:100D680003F8011B9D0704D09C46A4456346F7D1B0
:100D780030BD013A0244A2EB0C02032A29D9CCB2B5
:100D880004EB04240F2A04EB04442FD9A2F1100C1D
:100D98002CF00F0C03F11005AC44C3E90044C3E97F
:100DA800024410336345F8D112F00C0F02F00F0E15
:100DB80018D02EF0030C9C44AEF104051A4642F8F4
:100DC800044B6245FBD125F0030404330EF0030203
:100DD8002344002ACCD0C9B21A4403F8011B934219
:100DE800FBD130BD7246F4E70346C6E79646E0E716
:100DF80070B50F4B0F4DAB42A3EB050607D0B610ED
:100E0800002455F8043B01349847A642F9D800F06D
:100E1800E1F8094D094B5E1BAB424FEAA60606D026
:100E2800002455F8043B01349847A642F9D870BD10
:100E3800E80F0000E80F0000E80F0000F00F0000C6
:100E4800704700BF704700BF024B13B1024800F063
:100E580065B8704700000000310F00002DE9F04F21
:100E68002C4B2D4F83B082461868CDF804A08B46D2
:100E7800FFF7E6FF3E68AEB14FF000094FF00108FA
:100E88007468651E0ED4013406EB8404BBF1000FB0
:100E98000FD0D4F800315B450BD0013D6A1CA4F19A
:100EA8000404F6D11B4B186803B0BDE8F04FFFF7F8
:100EB800C9BF73682268013BAB420CBF7560C4F8B8
:100EC800009072B1D6F88811D6F804A008FA05F394
:100ED8000B420CD1904773683A68534513D1B2421C
:100EE80011D1013D6B1CA4F10404CFD1DAE7D6F887
:100EF8008C01D4F88010034209D101989047736897
:100F08003A685345EBD0002ACCD01646B8E70846D5
:100F18009047E0E7040000202C0000200023014651
:100F28001A46184600F014B838B5074D074C2C1B64
:100F3800A41005D0013C55F8043D9847002CF9D180
:100F4800BDE8384000F050B800100000FC0F000069
:100F58002DE9F8431B4D0646286898460F469146EA
:100F6800FFF76EFF184B1C681CB3286865681F2DB7
:100F780022DC4EB96B1C0235636044F82570FFF71C
:100F880061FF0020BDE8F88304EB85010123C1F867
:100F98008890D4F88821AB401A43022EC4F88821DF
:100FA800C1F80881E6D1D4F88C211A43C4F88C2101
:100FB800E0E7064C1C60D8E7FFF744FF4FF0FF302E
:100FC800E0E700BF040000202C00002030000020D3
:100FD800FEE700BFF8B500BFF8BC08BC9E467047E6
:100FE800510E000071020000F8B500BFF8BC08BC43
:0C0FF8009E467047490200000000000007
:101004004C100000000000200200000054100000FA
:101014000800002000000000541000000800002018
:101024000000000054100000080000200000000030
:10103400080000206E000000C00100200000000035
:08104400C001002000000000C3
:08104C000090D00328000020F1
:0400000300000CBD30
:00000001FF
