:1000000000000120F10F00006110000063100000EB
:10001000651000006710000069100000000000007B
:100020000000000000000000000000006B10000055
:100030006D100000000000006F1000007110000043
:1000400073100000731000007310000073100000A4
:100050007310000073100000731000007310000094
:100060007310000073100000731000007310000084
:100070007310000073100000731000007310000074
:100080007310000073100000731000007310000064
:100090007310000073100000731000007310000054
:1000A0007310000073100000731000007310000044
:1000B000731000007310000000000000000000003A
:1000C0007310000073100000731000007310000024
:1000D0007310000073100000731000000000000097
:1000E0000000000000000000000000000000000010
:1000F0000000000000000000000000000000000000
:1001000000000000000000000000000000000000EF
:1001100000000000000000000000000000000000DF
:1001200000000000000000000000000000000000CF
:1001300000000000000000000000000000000000BF
:1001400000000000000000000000000000000000AF
:10015000000000000000000000000000000000009F
:10016000000000000000000000000000000000008F
:10017000000000000000000000000000000000007F
:10018000000000000000000000000000000000006F
:10019000000000000000000000000000000000005F
:1001A000000000000000000000000000000000004F
:1001B000000000000000000000000000000000003F
:1001C000000000000000000000000000000000002F
:1001D000000000000000000000000000000000001F
:1001E000000000000000000000000000000000000F
:1001F00000000000000000000000000000000000FF
:100200005468652061766572616765206772616414
:100210006520696E2054544B256420696E20256446
:10022000207761733A2025630A0D000030313233A4
:1002300034353637383941424344454600000000E2
:10024000303132333435363738396162636465664C
:1002500000000000286E756C6C2900002E00000064
:100260004C435F434F4C4C41544500004C435F436B
:1002700054595045000000004C435F4D4F4E4554CB
:10028000415259004C435F4E554D45524943000081
:100290004C435F54494D45004C435F4D45535341DA
:1002A000474553003030303030303030303030302F
:1002B00030303030202020202020202020202020FE
:1002C000202020200020202020202020202028283E
:1002D0002828282020202020202020202020202006
:1002E0002020202020881010101010101010101046
:1002F0001010101010040404040404040404041076
:100300001010101010104141414141410101010103
:1003100001010101010101010101010101010101CD
:1003200010101010101042424242424202020202D9
:10033000020202020202020202020202020202029D
:10034000101010102000000000000000000000004D
:10035000000000000000000000000000000000009D
:10036000000000000000000000000000000000008D
:10037000000000000000000000000000000000007D
:10038000000000000000000000000000000000006D
:10039000000000000000000000000000000000005D
:1003A000000000000000000000000000000000004D
:1003B000000000000000000000000000000000003D
:0503C000000000000038
:0803C800940000000100000098
:1003D0000348044B834202D0034B03B118477047D4
:1003E000D8060020D8060020000000000548064B73
:1003F0001B1AD90F01EBA301491002D0034B03B123
:1004000018477047D8060020D806002000000000DA
:1004100010B5064C237843B9FFF7DAFF044B13B14C
:100420000448AFF300800123237010BDD8060020DC
:10043000000000000043000008B5054B1BB1054952
:100440000548AFF30080BDE80840FFF7CFBF00BF0D
:1004500000000000DC06002000430000A3F5803A05
:10046000704700BF174B002B08BF134B9D46FFF78B
:10047000F5FF00218B460F461348144A121A02F06A
:10048000B1F90E4B002B00D098470D4B002B00D03C
:1004900098470020002104000D000D48002802D0DC
:1004A0000C4802F0B7FB02F029FA2000290000F006
:1004B00071F800F0DFFD00BF000008000000000040
:1004C0000000000000000120D80600200C0A0020D7
:1004D000152C0000813F000080B485B000AF78602B
:1004E0000023FB600DE00023BB6003E000BFBB689E
:1004F0000133BB60BB68B3F57A5FF7D3FB680133A8
:10050000FB60FA687B689A42EDD300BF00BF1437E6
:10051000BD4680BC704780B483B000AF11237B60C0
:1005200010E04FF0A043D3F8183501217A6801FAA2
:1005300002F211464FF0A0420B43C2F818357B6817
:1005400001337B607B68142BEBDD00BF00BF0C37F1
:10055000BD4680BC704780B586B000AFF860B9601A
:100560007A60BB687B6100233B610AE07B691B7892
:10057000184600F0B1F87B6901337B613B690133B8
:100580003B613B697A689A42F0D87B681846183715
:10059000BD4680BD80B584B000AF00F06BF800F0C0
:1005A000D9F8FFF7B8FF0023FB604FF0A043D3F862
:1005B00010355B0B03F00103002B05D1412000F047
:1005C0008BF8C820FFF788FF4FF0A043D3F8103511
:1005D0009B0B03F00103002B05D1422000F07CF8B7
:1005E000C820FFF779FF00F09DF80346FB70FB7809
:1005F000184600F071F8FB78002B27D0FB68002B21
:1006000012D01123BB6009E00122BB689A404FF071
:10061000A043C3F80825BB680133BB60BB68142B3B
:10062000F2DD0023FB6011E011237B6009E0012271
:100630007B689A404FF0A043C3F80C257B680133D8
:100640007B607B68142BF2DD0123FB60FB78712B50
:1006500000D0AAE700BF422340F2E67241F28B01CC
:10066000034800F015FD002318461037BD4680BD35
:100670000002000080B400AF4FF0A0434022C3F856
:1006800018254FF0A0434FF48072C3F81C25104B7F
:100690000622C3F80C250E4B0822C3F814250C4B78
:1006A0000C4AC3F824250A4B4FF0FF32C3F8082543
:1006B000074B4FF0FF32C3F81025054B0422C3F857
:1006C0000025034B01221A6000BFBD4680BC704765
:1006D000002000400050270080B483B000AF0346E4
:1006E000FB710F4B0022C3F81C210D4B01229A60B5
:1006F0000B4AFB79C2F81C3500E000BF084BD3F869
:100700001C31002BF9D0064B0022C3F81C21044BEE
:100710000122DA6000BF0C37BD4680BC704700BFC5
:100720000020004080B400AF094BD3F80831012B02
:1007300008D1074B0022C3F80821054BD3F8183520
:10074000DBB200E000231846BD4680BC704700BF06
:100750000020004080B400AF4FF0A0430C22C3F84B
:1007600034274FF0A0430C22C3F8382700BFBD4602
:1007700080BC704780B483B000AF1E4B1B68B3F1E0
:10078000FF3F0AD11C4B1B68DBB27B601B4B1B6815
:100790001B0903F00F033B6005E0164B1B687B60F1
:1007A000174B1B683B607B68062B1DD13B68033BE6
:1007B000042B17D801A252F823F000BFD107000084
:1007C000D5070000D9070000DD070000E1070000A1
:1007D00001230AE0012308E0012306E0012304E0ED
:1007E000012302E0012300E0002318460C37BD4638
:1007F00080BC704730010010E00F00F0E80F00F0FF
:100800003401001080B483B000AF184B1B68DBB21A
:100810007B60174B1B681B0903F00F033B607B6871
:10082000062B1DD13B68033B042B17D801A252F8BD
:1008300023F000BF490800004D08000051080000E7
:10084000550800005908000001230AE0002308E0D1
:10085000002306E0002304E0002302E0002300E080
:10086000002318460C37BD4680BC7047E00F00F0EF
:10087000E80F00F080B483B000AF1E4B1B68B3F1EB
:10088000FF3F0AD11C4B1B68DBB27B601B4B1B6814
:100890001B0903F00F033B6005E0164B1B687B60F0
:1008A000174B1B683B607B68062B1DD13B68033BE5
:1008B000042B17D801A252F823F000BFD108000082
:1008C000D5080000D9080000DD080000E10800009C
:1008D00001230AE0012308E0012306E0012304E0EC
:1008E000012302E0012300E0002318460C37BD4637
:1008F00080BC704730010010E00F00F0E80F00F0FE
:100900003401001080B483B000AF184B1B68DBB219
:100910007B60174B1B681B0903F00F033B607B6870
:10092000062B1DD13B68033B042B17D801A252F8BC
:1009300023F000BF490900004D09000051090000E3
:10094000550900005909000001230AE0002308E0CE
:10095000002306E0002304E0002302E0002300E07F
:10096000002318460C37BD4680BC7047E00F00F0EE
:10097000E80F00F080B483B000AF1E4B1B68B3F1EA
:10098000FF3F0AD11C4B1B68DBB27B601B4B1B6813
:100990001B0903F00F033B6005E0164B1B687B60EF
:1009A000174B1B683B607B68062B1DD13B68033BE4
:1009B000042B17D801A252F823F000BFD109000080
:1009C000D5090000D9090000DD090000E109000097
:1009D00001230AE0012308E0012306E0012304E0EB
:1009E000012302E0012300E0002318460C37BD4636
:1009F00080BC704730010010E00F00F0E80F00F0FD
:100A00003401001080B483B000AF184B1B68DBB218
:100A10007B60174B1B681B0903F00F033B607B686F
:100A2000062B1DD13B68033B042B17D801A252F8BB
:100A300023F000BF490A00004D0A0000510A0000DF
:100A4000550A0000590A000001230AE0002308E0CB
:100A5000002306E0002304E0002302E0002300E07E
:100A6000002318460C37BD4680BC7047E00F00F0ED
:100A7000E80F00F080B483B000AF184B1B68DBB206
:100A80007B60174B1B681B0903F00F033B607B68FF
:100A9000062B1DD13B68033B042B17D801A252F84B
:100AA00023F000BFB90A0000BD0A0000C10A00001F
:100AB000C50A0000C90A000001230AE0002308E07B
:100AC000002306E0002304E0002302E0002300E00E
:100AD000002318460C37BD4680BC7047E00F00F07D
:100AE000E80F00F080B483B000AF1E4B1B68B3F179
:100AF000FF3F0AD11C4B1B68DBB27B601B4B1B68A2
:100B00001B0903F00F033B6005E0164B1B687B607D
:100B1000174B1B683B607B68062B1DD13B68033B72
:100B2000042B17D801A252F823F000BF410B00009C
:100B3000450B0000490B00004D0B0000510B00005D
:100B400000230AE0002308E0012306E0012304E07B
:100B5000012302E0012300E0002318460C37BD46C4
:100B600080BC704730010010E00F00F0E80F00F08B
:100B70003401001080B483B000AF1E4B1B68B3F18A
:100B8000FF3F0AD11C4B1B68DBB27B601B4B1B6811
:100B90001B0903F00F033B6005E0164B1B687B60ED
:100BA000174B1B683B607B68062B1DD13B68033BE2
:100BB000042B17D801A252F823F000BFD10B00007C
:100BC000D50B0000D90B0000DD0B0000E10B00008D
:100BD00001230AE0012308E0012306E0012304E0E9
:100BE000012302E0012300E0002318460C37BD4634
:100BF00080BC704730010010E00F00F0E80F00F0FB
:100C00003401001080B483B000AF1E4B1B68B3F1F9
:100C1000FF3F0AD11C4B1B68DBB27B601B4B1B6880
:100C20001B0903F00F033B6005E0164B1B687B605C
:100C3000174B1B683B607B68062B1DD13B68033B51
:100C4000042B17D801A252F823F000BF610C00005A
:100C5000650C0000690C00006D0C0000710C0000B8
:100C600001230AE0012308E0012306E0012304E058
:100C7000012302E0012300E0002318460C37BD46A3
:100C800080BC704730010010E00F00F0E80F00F06A
:100C90003401001080B483B000AF164B1B687B603A
:100CA000154B1B683B607B68062B1DD13B68033BE3
:100CB000042B17D801A252F823F000BFD10C00007A
:100CC000D50C0000D90C0000DD0C0000E10C000088
:100CD00000230AE0002308E0002306E0012304E0EB
:100CE000012302E0012300E0002318460C37BD4633
:100CF00080BC7047300100103401001080B483B014
:100D000000AF164B1B687B60154B1B683B607B6814
:100D1000062B1DD13B68033B042B17D801A252F8C8
:100D200023F000BF390D00003D0D0000410D000013
:100D3000450D0000490D000000230AE0002308E0F3
:100D4000002306E0002304E0012302E0012300E089
:100D5000002318460C37BD4680BC70473001001098
:100D60003401001080B500AFFFF7C8FF0346002B29
:100D700007D04FF010234FF08042D3F80832C2F86A
:100D8000583500BF80BD000080B400AF034B044A5B
:100D90001A6000BFBD4680BC704700BF0000002045
:100DA0000090D00380B500AFFFF7E4FC0346002BB2
:100DB00006D07F4B1B681B0A7E4A03F01F0313609B
:100DC000FFF720FD0346002B02D07B4B7B4A1A60C5
:100DD000FFF750FD0346002B06D0794B1B685B0BD9
:100DE000784A03F007031360FFF78CFD0346002BDE
:100DF00005D0754BDB68744A23F08073D360FFF72E
:100E0000B9FD0346002B0ED04FF080430022C3F8FB
:100E10000C214FF080430022C3F810214FF0804393
:100E20000022C3F83825FFF7EDFD0346002B02D062
:100E3000664B03221A60FFF71DFE0346002B0BD002
:100E4000634B05221A60634B01221A60624B002239
:100E50001A60624B3F221A60FFF744FE0346002BE4
:100E600076D04FF080535E4AD3F80434C2F8203570
:100E70004FF080535A4AD3F80834C2F824354FF063
:100E80008053574AD3F80C34C2F828354FF08053BA
:100E9000534AD3F81034C2F82C354FF08053504ADF
:100EA000D3F81434C2F830354FF080534C4AD3F89D
:100EB0001834C2F834354FF08053494AD3F81C3403
:100EC000C2F840354FF08053454AD3F82034C2F879
:100ED00044354FF08053424AD3F82434C2F84835A1
:100EE0004FF080533E4AD3F82834C2F84C354FF0C7
:100EF00080533B4AD3F82C34C2F850354FF080531E
:100F0000374AD3F83034C2F854354FF08053344A5E
:100F1000D3F83434C2F860354FF08053304AD3F8F8
:100F20003834C2F864354FF080532D4AD3F83C343E
:100F3000C2F868354FF08053294AD3F84034C2F8DC
:100F40006C354FF08053264AD3F84434C2F87035DC
:100F5000FFF710FE0346002B05D0224B1B68224AE8
:100F600003F04F031360FFF74DFE0346002B0DD037
:100F70004FF08043D3F8003403F00103002B05D079
:100F80004FF080436FF00102C3F80024FFF782FEA8
:100F90000346002B05D0154B1B68144A43F48063AD
:100FA0001360FFF7DFFEFFF7EFFE00BF80BD00BF5D
:100FB000240300104035014074C007400DF0ADBA65
:100FC000440200103C050040F0ED00E0A0050040A8
:100FD00010560040885600401856004014560040F5
:100FE00000C0004058020010E40E00403C170040D2
:100FF0000F49104A104B00F010F81049104A114BDD
:1010000000F00BF81049114A114B00F006F8114995
:10101000114A124B00F001F806E0521A03DD043ABF
:1010200098588850FBDC7047FFF7BCFEFFF71AFAB0
:1010300000000020D80600204C430000D806002005
:10104000D8060020244A0000D8060020D806002038
:10105000244A0000D8060020D8060020244A0000B8
:10106000FEE7FEE7FEE7FEE7FEE7FEE7FEE7FEE758
:10107000FEE7FEE708B50021044601F06BFD034BD7
:101080001B6803B19847204603F026F92C0800207E
:101090000FB400B5074983B004AB086853F8042BBC
:1010A0008168019300F008F803B05DF804EB04B028
:1010B000704700BF7C0100202DE9F04FC5B00DF155
:1010C000500A8346049116460021082250461C46C9
:1010D0000B9301F087FBBBF1000F04D0DBF8343039
:1010E000002B00F04A87049A536EB2F90C20D907FE
:1010F00040F13D81970400F1CC85049942F40052FF
:1011000023F400538A814B6612B2130740F1BD806D
:10111000049B1B69002B00F0B88002F01A030A2B15
:1011200000F0C2800023CDE91933CDE90E331BAAAC
:10113000DFF860920D93189217460793B046454624
:10114000D9F8E44001F0D0FBCDF800A003462A46D0
:1011500012A95846A047002800F0C580C0F2BB8005
:10116000129A252A034601D01D44E9E7B5EB08068B
:10117000044640F0BC8000231A468DF843300893A3
:101180004FF0FF316B78069105F10108039208F1E9
:101190000108A3F120025A2A00F2FE80DFE812F0D3
:1011A0008103FC00FC007A03FC00FC00FC005A03F5
:1011B000FC00FC0021023302FC002C029303FC0023
:1011C0008C035B005B005B005B005B005B005B0013
:1011D0005B005B00FC00FC00FC00FC00FC00FC0071
:1011E000FC00FC00FC00E7013003FC00FC00FC00FC
:1011F000FC00FC00FC00FC00FC00FC00FC003902D0
:10120000FC00FC00FC00B901FC000D03FC00FC002C
:10121000E305FC00FC00FC00FC00FC00FC00FC0002
:10122000FC00FC00FC00E7017401FC00FC00FC0079
:10123000500374016E00FC002904FC001A04010430
:10124000AF036E00FC00B9016B007302FC00FC00F0
:101250001406FC006B00A3F130020023194618F8B5
:10126000013B01EB810102EB4101A3F13002092AAC
:10127000F5D908918DE798F8003088E7039B43F093
:101280002003039398F8003081E7049D58462946CF
:1012900001F02AFA002841F01C80B5F90C2002F078
:1012A0001A030A2B7FF43EAF0499B1F90E30002BDC
:1012B000FFF638AF4B6EDD0702D4900540F1B787DB
:1012C000049923463246584601F032F807900798B1
:1012D00045B0BDE8F08F08220021504601F082FAA7
:1012E00001231D442CE7B5EB0806044610D01A9BD9
:1012F00033441A93199B0133072BC7E900861993CE
:1013000010DC0837079B33440793002C7FF433AF7E
:101310001A9B002B40F09587049B0022B3F90C30F8
:10132000199218E0049918AA584601F043F878B9C0
:101330001BAFE7E7049918AA584601F03BF80028CC
:1013400000F08E80099B1BB10999584601F0C4FC3E
:10135000049BB3F90C30049A526ED00740F18A8096
:101360005B0600F13A81079845B0BDE8F08F900523
:1013700040F1238191047FF5C0AE9F047FF5C5AE97
:10138000049B9B899A0500F12881049B986D01F0CC
:10139000E3FA22E110000020002BB9D001228DF8E1
:1013A000AC3000238DF8433009930A9206932BAD9D
:1013B0000592DDE919C0039B13F0840601466246DD
:1013C00026D1089B059C1C1B002C00F30A849DF869
:1013D000433003B300260C960132012301317B60B8
:1013E000072A0DF14303CDE919213B6000F39183F6
:1013F00008370C9B63B1013211AB02313B60072A05
:101400004FF00203CDE919217B6000F376830837A2
:10141000802E00F0F982069B0A981C1A002C00F31B
:1014200031830A9B3D6001321944072ACDE9192115
:101430007B6000F357830837039B5C0705D5089B47
:10144000059A9C1A002C00F37083DDE90732059899
:101450008242ACBF9B181B18079300297FF46AAF28
:1014600000231993099B1BB10999584601F034FCDC
:101470001BAF64E69A053FF573AF049CA06D01F0C5
:101480006BFAB4F90C306BE7039B9B0640F11E84AA
:101490000B9B073323F007031A465B6852F8084B8F
:1014A0000B921E46002BC0F2BC81069A002A07DB75
:1014B000039B23F08003039354EA060300F0A68401
:1014C0000A2C76F1000380F0028104F13003DBB2D4
:1014D000069A8DF80F31012A9DF84330B8BF0122DA
:1014E0000592002B00F0C983059B0133002505936D
:1014F0000123CDE909530DF20F15DDE91921039BF5
:1015000013F08406084694463FF45BAF00230C9327
:1015100062E70B9E00228DF8432056F8042B0992B7
:10152000002A00F05385532B00F08A84039B13F0AC
:10153000100440F08584069A002AC0F25B86099860
:10154000214601F00DFA9DF84320099D002800F086
:10155000A286431B0A9323EAE3730593002A00F053
:1015600094860133069405930B960994C5E70B9A6C
:10157000432B02F1040403D0039BD90640F13C84C1
:101580000822002116A801F02DF90B9B2BAD1A683B
:10159000294616AB584601F09FFA034601330A90DC
:1015A00000F062860A9B23EAE373059300230B9401
:1015B0008DF8433009930693FBE6049DA86D01F076
:1015C000C9F9B5F90C206B6E95047FF596AD9804BA
:1015D0007FF59BADD9077FF5D3AE4FF0FF3307936F
:1015E000C1E60B9B53F8042B0892002A80F24C832F
:1015F000089A0B9352420892039B43F0040303930F
:1016000098F80030C3E52B238DF8433098F800306C
:10161000BDE5039B9D0643F0100040F16D830B9BDD
:10162000073323F007031A46596852F8083B0B9218
:1016300000228DF84320069A002AC0F21A8320F473
:101640009062039253EA010200F0278344AD03F055
:101650000702DB0843EA4173C908303253EA010448
:10166000284605F8012DF2D1039B13F0010340F049
:101670009582069A099344AB5B1B9A42B8BF1A46FF
:101680000A93059295E603998E0600F19C800399D2
:101690000B9A11F0100652F8043B40F03683039980
:1016A00011F0400100F0C9849CB2069B8DF84360A4
:1016B000002B06DB039B23F080030393002C00F038
:1016C00033830A2C76F100030B92FFF4FEAE039BEA
:1016D000059703F48063CDE909B80020DDF8348074
:1016E00044A91F4625E0A319B84A43F10003A2FB11
:1016F000032C2CF0030202EB9C029B1AE31AA34674
:101700004FF0CC3CB14CB6460CFB03F266F1000640
:1017100004FB0622BBF10A0FA3FB044313444FEA68
:1017200054047EF1000E294644EAC3744FEA53067E
:101730002BD3DFF898C2A31943F10003ACFB0325B8
:1017400025F0030202EB95029B1AE31AA3FB0C326D
:1017500066F100050CFB05225B0843EAC27303EB4C
:101760008303A4EB43033033013001F8013C4D1EE9
:10177000002FB8D098F800308342B4D1FF28B2D0FF
:101780000A2C76F1000380F07C8406999DF84330A2
:10179000059FCDF8348044AA521B9142B8BF114630
:1017A000DDE909B805910A92002B00F00784059B3A
:1017B00001330593002309939FE6039B43F0100137
:1017C0009B0640F1A0820B9B073323F007031A46C8
:1017D0005E6852F8084B0B9200238DF84330069B4D
:1017E000002BC0F2F48221F08003039354EA060335
:1017F0007FF466AE069B002B00F09B82002464E61B
:10180000039A42F01003920600F199820B9A043277
:101810000B9903930C680B92E6173346002BBFF627
:1018200044AE2D238DF84330069B644266EB46069A
:10183000002BFFF645AE039B23F0800303933FE6A6
:1018400098F80030682B00F0F182039A42F04002D1
:1018500003929CE4584601F04DF843680F931846F4
:1018600001F0CEF80E900446584601F043F8816826
:1018700098F800300D91002C3FF489AC00293FF41A
:1018800086AC0A78002A3FF482AC039A42F4806264
:1018900003927CE4039B43F00103039398F8003028
:1018A00075E49DF8432098F80030002A7FF46FAC6F
:1018B00020228DF843206AE4039B43F080030393C6
:1018C00098F8003063E4404610F8013B2A2B00F002
:1018D000F484A3F13002092A98BF002100F2AC84FD
:1018E00010F8013B01EB810102EB4101A3F1300251
:1018F000092AF5D941EAE1720692804649E40B9C37
:10190000069D54F8043B002247F630019542ADF89D
:1019100044108DF8432018461146C0F25B82039AAA
:101920000B9422F0800242F002020392002B00F09E
:101930005883274A03F00F030224D35C05948DF8E3
:101940000F31030943EA0173080953EA111100F04A
:10195000CE840DF20F1503F00F011B09515C05F841
:10196000011D43EA0073000953EA0001F3D1069A0E
:1019700044AB5B1B9A42B8BF1A460A931346059ABA
:10198000002A00F0B8840233DDE919210593039B96
:1019900013F084060846944600F0798200230993E8
:1019A00029E5039884063FF53AAE03990B9A11F0A6
:1019B000100152F8043B40F0B184039C14F0400045
:1019C00000F01B839BB20B92204631E6CDCCCCCCF1
:1019D00040020000039B990640F1B4810B9B079ADB
:1019E0001B681A60D2175A600B9B04330B93FFF7E6
:1019F000A6BB98F800306C2B00F00E82039A42F0E0
:101A000010020392FFF7C3BB089B05981C1A002C19
:101A10007FF701AD102CB64B23DD38460C95102610
:101A2000049D1F4604E0103C102C00F1080015DD59
:101A300001321031072AC0E90076CDE91921F2DD23
:101A400018AA2946584600F0B5FC00287FF47AAC65
:101A5000103C102CDDE919211BA8E9DC0C9D3B464C
:101A6000074601322144072ACDE919213B607C60F9
:101A700000F39482069B0A981C1A002C07F10807B1
:101A80007FF7CFAC102C9A4B21DD384610261F462D
:101A900004E0103C102C00F1080016DD0132944BDC
:101AA0001031072AC0E90036CDE91921F1DD04998A
:101AB00018AA584600F07EFC00287FF443AC103C86
:101AC000102CDDE919211BA8E8DC3B460746013252
:101AD0002144072ACDE919213B607C6000F3BC80DA
:101AE00008379EE4049918AA584600F063FC0028C1
:101AF0007FF428AC1A991BAF9EE4049918AA5846A3
:101B000000F058FC00287FF41DACDDE919211BAF63
:101B10007EE4049918AA584600F04CFC00287FF493
:101B200011ACDDE919211BAF63E4102C199B714E38
:101B300021DD3A4610253746049E04E0103C102C67
:101B400002F1080215DD01331031072BC2E90075DF
:101B5000CDE91931F2DD18AA3146584600F02AFCC9
:101B600000287FF4EFAB103C102CDDE919311BAAE3
:101B7000E9DC3E46174601332144072BC7E90064E0
:101B8000CDE919317FF761AC049918AA584600F0E5
:101B900011FC00287FF4D6AB1A9956E4302A00F0E5
:101BA000F1813023069A05F8013C023844AB1B1A38
:101BB0009A42B8BF1A460A9305460592DDE91921F3
:101BC000039B13F084060846944600F0A9839DF811
:101BD0004330002B00F0A783002309930C93FFF7F9
:101BE000FBBB00230C93102C424E624623DD39468A
:101BF00010232F46049D04E0103C102C01F1080135
:101C000017DD01321030072AC1E90063CDE9192040
:101C1000F2DD18AA2946584600F0CCFB00287FF4D4
:101C200091AB103C102CDDE919201BA94FF01003DB
:101C3000E7DC3D460F4601322118072ACDE919217C
:101C40003E607C6000F36C819DF843600837002E95
:101C500036D00026FFF7C0BB049918AA584600F0FA
:101C6000A9FB00287FF46EABDDE919211BAFFFF75C
:101C7000D8BB20F480620392E8E4099301230A931D
:101C80000DF20F15FFF795BB0B9398F80030FFF797
:101C90007EBA9D047FF539AA9FE4069A002A7FF454
:101CA000D5AC10F00102059200F0348130238DF89C
:101CB0000F31069B0A9209930DF20F15FFF779BBBE
:101CC0000C9B002B7FF497ABFFF7A5BB039B0B9AF4
:101CD000DE0652F8044B3FF59BAD039B5D0640F1D9
:101CE000A18144F3C0360B9224B23346FFF7DABB2E
:101CF000A4020000B40200000B9B1A1D0B9B0B9268
:101D00001B68002194E40B9B1A1D0B9B06981B6813
:101D10000026B0428DF843601C4657DB21F080015D
:101D20000391002B7FF4CDAC069B0B92002B7FF42C
:101D300065AD0A930593099344ADFFF73ABB03934E
:101D4000FFF7A6BB039BDA0600F13B81039B5B0612
:101D500000F13D82039B9E0540F133810B9B079A66
:101D60001B681A7040E6AC4A039911F0200100F09C
:101D7000B2800B99073121F00701084604464968F3
:101D800054F8080B0B94039E16F00105059500F01E
:101D9000888050EA010440F0D98000238DF8433058
:101DA000069B002BC0F2B281039B23F49063039344
:101DB00000F0068213788DF80F31059B0A93069B7D
:101DC00005930DF20F15F9E6944ACDE70B920391B6
:101DD000FFF776BB03990B9441F002010391104683
:101DE00003F00F018D4A1B09515C8DF80F1100F0B3
:101DF000848202210591ACE50B9B1B688DF8AC3009
:101E0000012305930A932BADFFF7D0BB002A00F006
:101E1000CC813023FFF75CBB039B43F0200303938B
:101E200008F1010898F80030FFF7B1B9039B43F4BB
:101E30000073039308F1010898F80030FFF7A7B981
:101E4000099B13930822002116A800F0CBFC069BE7
:101E5000002BC0F265810024059725461F460EE041
:101E60002BA9584600F038FE411C284400F0FC81A4
:101E7000B84209DC04F1040400F005820546139A17
:101E8000125916AB002AEBD1059F069557E1089C25
:101E9000059B0996E41A002C7FF7ADAA02230C9348
:101EA000A1E6059B8DF84330069B002B27DB039BA7
:101EB00023F49063039350EA01035AD10699002951
:101EC00000F0648113788DF80F31012305910A9396
:101ED0000DF20F1572E60B9C54F8040B0B94039C47
:101EE00014F010047FF44FAF039911F0400100F09B
:101EF000C18080B2214646E743F002030393039C6E
:101F000000F00F0304F0020524F48064D35C05950F
:101F1000039414E5069B44ADCDE90933FFF749BAB4
:101F2000049918AA584600F045FA064600287FF49E
:101F300009AA9DF84330DDE91921002B68D10C9BDB
:101F40001BAF002B7FF457AAFFF765BA8DF8453019
:101F500030238DF8443000238DF84330069B002B4E
:101F6000039BC9DB23F4906343F002030393022332
:101F7000059300F00F03D35CE1E4584600F08AFBC0
:101F8000FFF7B1B8069A44AB5B1B9A42B8BF1A463A
:101F90000A93002305920993FFF70BBA049918AA34
:101FA000584600F007FA00287FF4CCA9DDE9192192
:101FB0001BAFFFF730BA099D06930B960993FFF705
:101FC000F8B90B9B079A1B681A600DE5069B144D28
:101FD0000B96062B28BF062305930A930692FFF75C
:101FE000E8B9002D00F0EE80302301228DF80F318A
:101FF0000A922B460DF20F15C5E4039C14F40071F0
:1020000000F0F4800146DBB20B922046FFF710BBD4
:102010001BAFFFF7E1B900BF2C0200004002000037
:1020200054020000039B0B9298054ABF44F3C0166C
:10203000E61764B23346FFF735BA039810F400761A
:1020400040F0CA8006998DF8436000291C46FFF6CF
:1020500038AB039820F080000390002B7FF431AB65
:102060000B9200297FF4CAAB0A910591099144AD06
:10207000FFF79FB9039C14F4007414BFC0B221464B
:1020800081E60E9A0F99AD1A284600F0F9FB98F8F0
:1020900001300BB108F10108A44AA31943F1000370
:1020A000A2FB030C2CF0030000EB9C001B1AE31AAC
:1020B0004FF0CC3166F1000603FB01F102FB061183
:1020C000A3FB023001445B0843EAC1744E08A31924
:1020D00043F10003A2FB031020F0030101EB900188
:1020E0005B1AE31AA3FB023166F1000002FB001247
:1020F0005B0843EAC27303EB8303A4EB430330336F
:1021000005F8013C0120013DFFF734BB13788DF841
:102110000F3126F480630A9503930DF20F154DE5F8
:1021200016AB00930023194613AA584600F0FAFC98
:1021300003460133069000F09780099B1393069B9A
:1021400043B3632B6BDC002309932BAD08220021E2
:1021500016A800F047FB069C16AB009313AA234673
:102160002946584600F0DEFC844240F0D0800699B3
:1021700000236B5421EAE17205929DF84320002A66
:1021800069D1CDE90A160692FFF713B9069B0A93A7
:1021900044AD13E59DF84330099D0B96003B18BFF5
:1021A00001230593069B0A9308E59DF843303BB154
:1021B000069BCDE90933012344AD0593FFF79DB993
:1021C000069BB6E5069B0A9344ADFFF7DCBB0B9B71
:1021D000079A1B681A8007E4DCB2069B8DF843104F
:1021E000002B0E46BFF666AAFFF76BBA03980B9258
:1021F000FFF71EBA099D284600F002FC9DF8433007
:102200000A9020EAE0720592002B3FF4D4AE134608
:102210000133069405930B960994FFF76EB9591C88
:10222000584600F051FE0546F0B109908EE7886DE2
:1022300000F092FBFFF744B8002280460692FEF7BA
:10224000A8BF049918AA584600F0B4F800283FF433
:1022500063A8FFF77DB8069A0A92059A0B96013299
:1022600005920693FFF749B90498B0F90C30426E15
:1022700043F04001D20781813FF5AFA999053FF5B1
:10228000ACA9FFF7FAB8059F59E7099D06920B968E
:102290000992FFF78EB842B1069A0B96511C059130
:1022A0000A9206900990FFF728B9069B0992CDE99A
:1022B00005320B960A93FFF77CB80B9A98F8013019
:1022C00052F8041B0B9241EAE17180460691FEF739
:1022D0005EBF049A536EDF073FF57FA993899E0581
:1022E0003FF57BA9906D00F037FBFFF776B90DF253
:1022F0000F15FFF73CBB059360E4069B0122012B01
:10230000B8BF01230DF20F150A92FFF73CBB049AE8
:10231000938943F040039381FFF714B80398EDE4E9
:102320000996FFF74EB80993FFF772B8CDCCCCCC25
:102330002DE9F04198468B89ADF58D6D23F00203B0
:10234000ADF80C301AAB009304934FF48063029302
:1023500005934B6E1993CB89ADF80E30CB6907937B
:102360004B6A099316460023074616A80D460693A6
:1023700000F0ECFA3246434669463846FEF79CFECA
:10238000061E6C4607DB6946384600F0B5F80028A3
:1023900018BF4FF0FF36A3895B0603D5AB8943F026
:1023A0004003AB81A06D00F0D3FA30460DF58D6D82
:1023B000BDE8F081936810B514461BB91846002398
:1023C000636010BD01F062F80023A3600023636026
:1023D00010BD00BFB1F90C20F8B513070C46074635
:1023E00049D4496842F400630029A3815FDDA66AED
:1023F000002E3ED0002112F480523D68396062D137
:10240000E16901233846B047461C024669D0B4F959
:102410000C30A66A580705D56368D21A236B0BB136
:10242000E36BD21AE16900233846B047411CB4F986
:102430000C304AD139681D293FD82E4ACA40D207EC
:102440003BD52269226023F40062A281DE044FF0B2
:102450000002626001D5002941D0216B3D6041B18D
:1024600004F14003994202D0384600F035FC0023C5
:1024700023630020F8BD0E69002EFAD00D680E60AF
:1024800092070CBF4B690023AD1B8B600CE0D4F8A6
:1024900024C0E1692B4632463846E047B0F1000CD3
:1024A000A5EB0C05664406DD002DF0DCE1E7E16BF1
:1024B00000299CDCDDE7B4F90C3043F04003A38134
:1024C0004FF0FF30F8BD226DA4E72269226023F4AB
:1024D0000062A281DB044FF000026260BDD520657E
:1024E000BBE73B68002B92D01D2B01D0162BE2D10D
:1024F0003D60BEE70100402038B50C46054608B1F6
:10250000436B03B3B4F90C0088B1636EDB0701D4ED
:1025100081050FD528462146FFF75CFF636EDA0779
:10252000054602D4A3899B0508D5284638BD054633
:10253000284638BDA06D00F00DFAEBE7A06D00F065
:102540000BFA284638BD00F0A5F8DBE7024A03493C
:10255000034801F013B900BF04000020F53B000060
:10256000800100200C4B4168994210B5044601D00F
:1025700001F040FBA168094B994202D0204601F0CE
:1025800039FBE168064B994204D02046BDE8104073
:1025900001F030BB10BD00BFF40600205C07002036
:1025A000C40700202DE9F843314A324C3249DFF8A4
:1025B000CC90DFF8CC80334F1160002504232946EE
:1025C000082204F15C00C4E903352F4EA560C4E97C
:1025D0000055C4E90555656600F004F904F158009A
:1025E000C4E90749C4E90987E66200F0AFF9294662
:1025F000264B6367082204F1C400C4E91A55C4E9F4
:102600001E552567C4F8CC50C4F8805000F0EAF895
:1026100004F1680304F1C000C4F88430C4E92298CE
:10262000C4E9247600F092F9194BC4F8DC3029464D
:1026300004F596700822C4E93455C4E93855C4F845
:10264000D850C4F83451C4F8E85000F0CBF804F185
:10265000D003C4E93D87C4F8F09004F59470C4F841
:10266000FC60C4F8EC30BDE8F84300F06FB900BF7F
:102670002C080020F40600204D250000B53C000089
:10268000D93C0000193D00003D3D0000090001005B
:102690001200020010B504460A4800F05BF9636BB3
:1026A00023B9094B094A1B68626323B1BDE8104096
:1026B000044800F051B9FFF775FFBDE8104001482C
:1026C00000F04AB9380800202C08002065250000D9
:1026D000014800F03FB900BF38080020014800F071
:1026E0003BB900BF3808002038B53D4B1B68054694
:1026F0000C4613B15A6B002A5AD0B4F90C301907A2
:102700000BD522699AB113F0010221D19B075ABF60
:102710006369A360A260002038BDDA0658D5580767
:102720001CD4226943F00803A381002AEBD1990548
:1027300028D5180603F0800124D4D80741D49D077A
:102740003CD5A2600029E6D043F04003A38144E0D9
:10275000636900225B42A260A361DCE7216B51B197
:1027600004F14002914204D0284600F0B5FAB4F9D1
:102770000C300022226322690021C4E9002123F0E9
:102780002403CFE72146284601F01AF8B4F90C30AB
:10279000226913F001010FD0616900204942A06055
:1027A000A161002AB7D103F080010029B3D0CBE7A3
:1027B0001846FFF76FFFA0E7980700D46169A16092
:1027C000EFE76069A2604042A0610029A3D0BBE7A7
:1027D000092243F040032A60A3814FF0FF3038BD47
:1027E0007C010020830730B546D08418844604E07D
:1027F00003F8011B9D0704D09C46A4456346F7D10E
:1028000030BD013A0244A2EB0C02032A29D9CCB212
:1028100004EB04240F2A04EB04442FD9A2F1100C7A
:102820002CF00F0C03F11005AC44C3E90044C3E9DC
:10283000024410336345F8D112F00C0F02F00F0E72
:1028400018D02EF0030C9C44AEF104051A4642F851
:10285000044B6245FBD125F0030404330EF0030260
:102860002344002ACCD0C9B21A4403F8011B934276
:10287000FBD130BD7246F4E70346C6E79646E0E773
:1028800040EA01039B0710B501D1032A17D88446FB
:1028900001F1FF3E07E01EF8011F03F8011B541E63
:1028A00029B19C4622466346002AF4D110BD9444C7
:1028B000002CFBD003F8011B6345FBD110BD8E46F5
:1028C0008446DEF80040A4F1013323EA040313F048
:1028D000803F71460EF1040EDAD1043A032A4CF817
:1028E000044BEED87146D3E7014B93F828017047AB
:1028F00010000020004870470001002070B50F4B09
:102900000F4DAB42A3EB050607D0B610002455F8D7
:10291000043B01349847A642F9D801F0DFFC094D89
:10292000094B5E1BAB424FEAA60606D0002455F8C1
:10293000043B01349847A642F9D870BDE842000034
:10294000E8420000E8420000F0420000704700BF8B
:10295000704700BF704700BF704700BF0000000015
:1029600001F0FF01102A2BDB10F0070F08D010F840
:10297000013B013A8B422DD010F0070F42B3F6D144
:10298000F0B441EA012141EA014122F007047FF05D
:1029900000070023F0E80256083C85EA010586EAB4
:1029A000010685FA47F5A3FA87F586FA47F6A5FAF0
:1029B00087F68EB9EED1F0BC01F0FF0102F00702FC
:1029C00032B110F8013B013A83EA010313B1F8D1A7
:1029D0000020704701387047002D06BF3546033888
:1029E000073815F0010F07D1013015F4807F02BFC1
:1029F000013015F4C03F0130F0BC0138704700BF12
:102A000030B490F800F020F007016FF0000C10F0E7
:102A1000070491F820F040F048804FF000046FF078
:102A20000700D1E9002391F840F000F1080082FA94
:102A30004CF2A4FA8CF283FA4CF3A2FA8CF34BBB5F
:102A4000D1E9022382FA4CF200F10800A4FA8CF2D8
:102A500083FA4CF3A2FA8CF3E3B9D1E9042382FAA6
:102A60004CF200F10800A4FA8CF283FA4CF3A2FABB
:102A70008CF37BB9D1E9062301F1200182FA4CF2F3
:102A800000F10800A4FA8CF283FA4CF3A2FA8CF35A
:102A9000002BC6D0002A04BF04301A4612BAB2FA7C
:102AA00082F200EBD20030BC7047D1E9002304F081
:102AB0000305C4F100004FEAC50514F0040F91F8B6
:102AC00040F00CFA05F562EA05021CBF63EA050353
:102AD00062464FF00004AAE770B5054684B05BB1CA
:102AE0001C460F4BD3F8E060234669B12846B04737
:102AF000431C0FD004B070BD094B00F58274D3F8AD
:102B0000E06023460029F1D10A46284601A9B047D2
:102B1000431CEFD100228A2322602B6004B070BDD9
:102B20001000002000B583B0DDF810C0CDE9003CF6
:102B30004FF0FF3301F048FB03B05DF804FB00BF2A
:102B4000024B13B1024800F065B870470000000066
:102B5000813F00002DE9F04F2C4B2D4F83B0824672
:102B60001868CDF804A08B46FFF7F4FE3E68AEB1BE
:102B70004FF000094FF001087468651E0ED401344F
:102B800006EB8404BBF1000F0FD0D4F800315B4595
:102B90000BD0013D6A1CA4F10404F6D11B4B18684C
:102BA00003B0BDE8F04FFFF7D7BE73682268013B62
:102BB000AB420CBF7560C4F8009072B1D6F88811B2
:102BC000D6F804A008FA05F30B420CD190477368BD
:102BD0003A68534513D1B24211D1013D6B1CA4F1A7
:102BE0000404CFD1DAE7D6F88C01D4F88010034280
:102BF00009D10198904773683A685345EBD0002A91
:102C0000CCD01646B8E708469047E0E7C00200205F
:102C10003C080020002301461A46184601F0E6BA97
:102C20002DE9F84306460820894601F09BF9DFF8B4
:102C30009C800546304600F095FDD8F808305F6866
:102C400027F00307A7F11104A4EB09042C44B4FBFB
:102C5000F5F4013C05FB04F4A54208DC00213046F4
:102C600001F052F9D8F808303B44984205D030467C
:102C700000F07EFD0020BDE8F8836142304601F09F
:102C800043F901300FD0124AD8F808303F1B47F003
:102C900001075F60136830461B1B136000F068FD7E
:102CA0000120BDE8F8830021304601F02DF9D8F865
:102CB0000820831A0F2BDADD43F001035360054B24
:102CC00003491B68C01A0860D1E700BFD00200208A
:102CD00040080020C402002000295BD0F8B50C4653
:102CE000074600F03FFD54F804CC744DA4F10802EF
:102CF0002CF00103D118A8684E68884226F003061C
:102D00000CF0010E7ED088194E60406800F0010082
:102D1000BEF1000F2FD154F8084C121B23449468C5
:102D200005F1080C644562D0D2F80CE0C4F80CE060
:102D3000CEF8084000287FD043F0010050600B60BF
:102D4000B3F5007F2FD2D90868685C0901310123EF
:102D500009B2A34003436B6055F83100906005EB66
:102D6000C103083BD36045F83120C2603846BDE856
:102D7000F84000F0FDBC70B9334405F1080C8868D8
:102D8000604543F0010471D0C968C1608860546037
:102D9000D350D5E770474CF00101B3F5007F44F8FC
:102DA000041CD350CFD3B3F5206F4FEA532045D244
:102DB000980900F1390109B200F13804C900681816
:102DC00069580838884203D157E08968884204D09E
:102DD0004C6824F003049C42F7D8C868C2E902108A
:102DE00082603846CA60BDE8F84000F0C1BC88BBCC
:102DF0001E44D1E90213CB60996046F00103536091
:102E00009651B3E71E44BEF1000F07D154F8083CB9
:102E1000D21A1E44D2E90213CB60996046F0010336
:102E20005360274BAA601B68B3429FD8254B384696
:102E30001968FFF7F5FE99E73344A0E714280ED987
:102E4000542821D8180B00F16F0109B200F16E046B
:102E5000C900B4E743F0010050600B6086E700F161
:102E60005C0109B200F15B04C900A8E7C5E90422CE
:102E7000C2E902CC5460D35078E76E68A4100123F5
:102E8000A34033436B60A9E7B0F5AA7F07D8D80BFE
:102E900000F1780109B200F17704C9008FE740F230
:102EA0005451884206D8980C00F17D0100F17C0451
:102EB000C90084E74FF47E717E2480E7D0020020B1
:102EC000C8020020700800202DE9F04F01F10B0529
:102ED000162D83B0064623D8102900F2B48000F0E6
:102EE00041FC102518230220B84F3B44A3F10802EF
:102EF0005C68944200F064816368E268A16823F032
:102F00000303CA602344304691605A6842F00102CC
:102F10005A6000F02DFC0834204603B0BDE8F08F65
:102F200035F0070500F18F80A94200F28C8000F097
:102F300019FCB5F5FC7FC0F0B8815FEA552E00F0B2
:102F40008980BEF1040F00F270814FEA951E0EF1E8
:102F5000390003B20EF1380EDB009C4F3B44A3F165
:102F6000080C5C68A44507D10DE0002AE16880F2F6
:102F700021818C4507D00C46636823F003035A1B5C
:102F80000F2AF2DD7046DFF848823C69444500F0C4
:102F9000FE80636823F0030CACEB05030F2B00F3FA
:102FA0008981002BC7E9048880F27381BCF5007F1A
:102FB000D7F804E080F018814FEADC03013319B23E
:102FC0004FEA5C1C012303FA0CF357F83120A2608E
:102FD0004EEA030E07EBC103083BE360C7F804E0C9
:102FE00047F83140D46083104FF0010C0CFA03FC19
:102FF000F44535D81CEA0E0F08D120F003004FEA43
:103000004C0C1CEA0E0F00F10400F8D007EBC00ACC
:10301000D6468146DEF80C300BE0596821F00301FA
:103020004A1B0F2A1C46DB6800F30F81002A80F23E
:1030300023819E45F1D109F1010919F0030F0EF129
:10304000080EE7D161E10C2333600024204603B071
:10305000BDE8F08F4FF4007340204FF03F0E7CE747
:10306000BC68636823F00309A94504D3A9EB0503F1
:103070000F2B00F38F80574B1B68082003F11008BB
:1030800004EB0903009300F06DFF534A136801330A
:10309000A844834605D008F1FF388044434203EA40
:1030A00008084146304600F02FFFB0F1FF3F4A4A82
:1030B000824600F01B8104EB0903834200F2148175
:1030C000464B186840440BF1FF3C186000F07281D9
:1030D0001168013100F07A8104EB0902AAEB0202C7
:1030E00002441A601AF00702CDE9002300F0328191
:1030F000C2F108029244D04408EA0C015A44521A20
:1031000002EA0C0B5946304600F0FEFE421C019BC1
:1031100000F07981A0EB0A0000EB0B081868C7F8F3
:1031200008A048F001025844BC42CAF804201860C4
:1031300016D0B9F10F0F40F24C816168A9F10C0271
:1031400022F0070201F00101114361604FF0050C0C
:10315000A1180F2AC1E901CC00F25D81DAF8042040
:103160001F4B1968814238BF18601E4B1968814295
:1031700038BF1860544622F00308A845A8EB0503A1
:1031800001D30F2B06DC304600F0F2FA5DE7D7F8EA
:1031900004E028E7621943F0010345F0010565608A
:1031A0003046BA60536000F0E3FA0834204603B0BA
:1031B000BDE8F08FA2682344D16030468A60A4E65F
:1031C000DC68A3427FF498AE0230DCE6D002002037
:1031D000D802002070080020C4020020400800200F
:1031E0006C08002068080020BCF5206F4FEA5C22C4
:1031F00072D3142A00F2C18002F15C031BB25B326D
:10320000DB00F918FB580839994203D198E09B6814
:10321000994204D05A6822F003026245F7D8D9686F
:10322000C4E902318C60DC60DDE6BEF1140F60D9C8
:10323000BEF1540F00F2AB804FEA153E0EF16F0065
:1032400003B20EF16E0EDB0087E6D4F808C03046FC
:10325000661945F001056560CCF80C30C3F808C06C
:1032600042F00103C7E90466C6E902887360625050
:1032700000F07EFA0834E9E6214430464A6842F01C
:1032800001024A6054F8082FD3609A6000F070FA87
:10329000DCE6A4443046DCF8043043F00103CCF80B
:1032A000043000F065FA0834D0E6E808431C1BB28D
:1032B000DB0019E6621943F0010145F00105656084
:1032C0003046C7E90422C2E90288516044F80C3054
:1032D00000F04EFA0834B9E64FEA9C1202F13903C5
:1032E0001BB23832DB008CE7BC425CD0BC68626841
:1032F00041E70EF15C0003B20EF15B0EDB002CE641
:103300005AF80839534540F0A68010F0030F00F139
:10331000FF30F5D17B6823EA0C037B604FEA4C0C4D
:103320009C453FF69DAEBCF1000F04D198E64FEAF4
:103330004C0C09F104091CEA030FF8D0484665E675
:1033400092104FF0010C0CFA02F24EEA020EC7F88E
:1033500004E065E70AEB080202EA0C02ABEB0202AA
:1033600002EA0C0B5946304600F0CEFD431C019B8F
:103370007FF4D0AEDDF800B0D0E6542A2DD84FEA65
:103380001C3202F16F031BB26E32DB0039E7BEF56F
:10339000AA7F2DD84FEAD53E0EF1780003B20EF188
:1033A000770EDB00D9E52D4B186840440BF1FF3C4C
:1033B00018608DE61AEA0C0F7FF48AAED7F808A0E1
:1033C000C84448F00102CAF80420C9E6C2F800A0C7
:1033D00088E60123CAF80430D5E6B2F5AA7F25D8DD
:1033E0004FEADC3202F178031BB27732DB0008E7E8
:1033F00040F254539E4524D8AB0C03F17D0003F1F9
:103400007C0EC300A9E5009A083A9044A8EB0A088C
:103410004FF0000B82E6304604F108010093FFF7FD
:103420005BFC009BD7F808A0186897E640F254535D
:103430009A420CD84FEA9C4202F17D03DB007C32B9
:10344000DFE64FF47E737F204FF07E0E85E54FF46C
:103450007E737E22D5E67B6860E700BF40080020CF
:1034600082B049B15AB16BB113780B601278101E5B
:1034700018BF012002B0704701A9002AF3D11046FD
:1034800002B070476FF00100F4E700BF9368002BB3
:1034900000F0B2802DE9F04FB1F90CC01CF0080F1C
:1034A00083B0174680460C4625D00B691BB31CF031
:1034B00002033D682BD04FF0000ADFF8A4B2564655
:1034C0005E453346524628BF5B464046002E00F01C
:1034D0008280E169D4F824C0E047002840F384806A
:1034E000BB681B1A8244361ABB60002BE8D100204F
:1034F00003B0BDE8F08F21464046FFF7F5F80028FD
:1035000077D1B4F90CC03D681CF00203D3D11CF094
:10351000010973D14E46002E59D01CF4007F20685B
:10352000D4F808B000F0AD80B3455A4600F2DC8014
:103530001CF4906F32D023696269A0EB030A02EB9E
:10354000420202EBD2720AF101015210314491425F
:1035500092BF93468B460A461CF4806F00F0E280CF
:1035600011464046FFF7B0FC002800F0F2805246BA
:103570002169019000F018FDA289019B22F490625C
:1035800042F08002A28103EB0A002361ABEB0A0345
:10359000C4F814B0A3602060B34632464946019295
:1035A00000F0D0FBA368019AA3EB0B012368A16094
:1035B0001344B24623600026BB68A3EB0A03D14440
:1035C000BB60002B93D0B4F90CC0002EA5D1D5E977
:1035D000009608359FE7D5E900A6083570E7214633
:1035E0004046FEF789FF68B3B4F90C3043F040035E
:1035F000A3814FF0FF307BE7002070471E46BA469C
:10360000994618461F465EB380B34A46D4E9041370
:103610002068B24228BF3246884204D9A16803EB31
:10362000010B5A4570DC934261DCE169D4F824C097
:103630003A464046E047B0F1000BD5DDB9EB0B0947
:10364000CDD00120DAF80830A3EB0B035F44A6EBE2
:103650000B06CAF80830002B3FF449AF002ED3D137
:103660006E682B460835002EFAD01F6832460A21B4
:103670003846FFF775F9002868D00130A0EB07093C
:10368000C3E72369834217D36269B24214D86FF04B
:103690000043B34228BF3346E16993FBF2F3D4F809
:1036A00024C002FB03F340464A46E047B0F1000A5B
:1036B0009ADDA6EB0A067FE7B345DA4628BFB24695
:1036C0005246494600F03EFBA3682268A3EB0A037A
:1036D0005244A3602260002BEBD121464046FEF706
:1036E0000BFF0028E5D07FE7B346324656E7394660
:1036F000019200F027FB019AA3689B1AA36023683C
:1037000013442360934699E739465A4600F01AFB62
:1037100023685B44236021464046FEF7EDFE002807
:103720008CD061E71946404600F0B2F80346002805
:103730007FF429AF21694046FFF7CEFAB4F90C3087
:103740000C22C8F8002023F080034FE7721C91463A
:103750005CE70C22B4F90C30C8F8002046E700BF43
:1037600000FCFF7F0148FFF7F5B800BF30080020DC
:103770000148FFF7F1B800BF300800202DE9F843F9
:103780000746884616464FF00009D6E90154013D28
:1037900010D4A389012B08D9B4F90E300133214686
:1037A000384602D0C04749EA0009013D6B1C04F1CC
:1037B0006804EED13668002EE7D14846BDE8F883AC
:1037C00070B5B1F90C300C46990796B007D504F1E5
:1037D00043030122C4E90432236016B070BDB4F97A
:1037E0000E10002905462BDB6A4600F039FB002845
:1037F00024DB4FF480612846019EFFF765FBB4F996
:103800000C30A0B306F4704643F080034FF480629E
:10381000B6F5005FA38120602061626135D1B4F903
:103820000E10284600F032FBB4F90C3068B323F0D8
:10383000030343F001034FF4006214E0B4F90C30C9
:1038400013F0800F0CBF4FF48066402631462846A7
:10385000FFF73AFBB4F90C3048B1C4E9040643F071
:103860008003206000221343A38116B070BD9A0527
:10387000B3D423F0030304F1430243F00203012114
:10388000C4E90421A3812260A7E74FF40062EAE7BC
:103890002DE9F84F1646002900F098800C46804626
:1038A00006F10B05FFF75EFF54F8041C162DA4F17A
:1038B000080921F0030758D81025AE4258D8AF4266
:1038C00062DABF4B9A6809EB070C6245DCF804002A
:1038D00000F0928020F0010363445B68DB076AD448
:1038E00020F003003B189D4249DDCB0712D454F869
:1038F000083CA9EB030BDBF8043023F0030210446F
:1039000000EB070A554540F3F88007EB020A5545DE
:1039100040F3CE8031464046FFF7D6FA06460028EF
:1039200000F0228154F8043C23F001034B44A0F141
:103930000802934200F0B6803A1F242A00F2D98090
:10394000132A00F2A48003462246116819605168C8
:10395000596092689A6021464046FFF7BDF940469B
:10396000FFF706FF3046BDE8F88F35F00705A4D510
:103970000C23C8F8003000263046BDE8F88F1F46FB
:10398000DCE90223D3609A60D9F804307A1B0F2A4D
:1039900003F0010309EB07001DD83B43C9F80430CD
:1039A000436843F0010343604046FFF7E1FE2646CB
:1039B0003046BDE8F88FC907ACD454F8083CA9EBF1
:1039C000030BDBF8043023F003029EE7BDE8F84F59
:1039D0001146FFF779BA09EB05012B4342F00102CA
:1039E000C9F804304A60436843F00103436008317A
:1039F0004046FFF771F9D7E720F00300C21905F13F
:103A0000100C624580F29180CA0783D454F8082CC8
:103A1000A9EB020BDBF8042022F00302104400EBB8
:103A2000070AD4453FF771AF5E46DBF80C1056F835
:103A3000080F3A1F242AC160886000F2AE80132A62
:103A400040F2A9802168CBF808106168CBF80C100F
:103A50001B2A00F2A88008340BF1100221681160C3
:103A600061685160A16891600BEB0501AAEB05024A
:103A700042F0010299604A60DBF8043003F0010370
:103A80002B434046CBF80430FFF772FE90E72368E3
:103A90000360636843601B2A3CD804F1080200F10C
:103AA000080352E750F8043C23F003031F446BE77C
:103AB0003A1F5E46DBF80C3056F8081F242ACB600C
:103AC000996022D8132A1ED92368CBF8083063687E
:103AD000CBF80C301B2A3BD808340BF110032268BA
:103AE0001A6062685A60A2689A6034465746D9469E
:103AF0004AE7214600F026F92DE7DCE902133A1FD8
:103B0000CB609960D5E73346E9E72146304600F0BF
:103B100019F9EAE7A3688360E368C360242A27D021
:103B200004F1100200F110030FE709EB05019960A1
:103B3000531B43F001034B6054F8043C03F00103B2
:103B40002B43404644F8043CFFF712FE26462FE77D
:103B5000A368CBF81030E368CBF81430242A10D0D7
:103B600010340BF11803BAE74046FFF701FE02E7F5
:103B7000236903616169416104F1180200F11803CE
:103B8000E3E62369CBF818306369CBF81C301834AE
:103B90000BF12003A3E7324660E72146304600F0F0
:103BA000D1F8074B60E7A168CBF81010E168CBF8BB
:103BB0001410242A06D010340BF118024EE700BF6F
:103BC000D00200202269CBF818206269CBF81C20B3
:103BD00018340BF1200241E749B1FF2A02D80A70DC
:103BE000012070478A2303604FF0FF30704708467A
:103BF000704700BF70B500293FD006460C4610B193
:103C0000436B002B3CD0636EB4F90C20DD0732D43B
:103C1000900538D521463046FEF7DCFBE36A0546C1
:103C200033B1E169304698470028B8BF4FF0FF35FF
:103C3000A3891A0639D4216B41B104F1400399429A
:103C400002D03046FFF748F800232363616C21B1AE
:103C50003046FFF741F800236364FEF739FD636ED9
:103C60000022DB07A2811CD5A06DFEF771FEFEF7D6
:103C700035FD284670BD002ACCD10025284670BDF0
:103C8000FEF708FDBFE7A06DFEF764FEB4F90C3047
:103C9000002BBFD1636ED907EFD4A06DFEF75CFE99
:103CA000EBE7A06DFEF758FEDEE721693046FFF72F
:103CB00013F8C0E710B50C46B1F90E1000F00EF97C
:103CC000002803DB236D0344236510BDA38923F47F
:103CD0008053A38110BD00BF2DE9F0410C46B1F91E
:103CE0000C101F46CB05054616460BD421F4805117
:103CF000A1813B46B4F90E1032462846BDE8F0419A
:103D000000F014B9B4F90E100223002200F0D0F82C
:103D1000B4F90C10EAE700BF10B50C46B1F90E106B
:103D200000F0C6F8B4F90C30421C0EBF23F48053E7
:103D300043F480532065A38110BD00BFB1F90E107C
:103D400000F07CB888420DD98B1883420AD900EB69
:103D5000020C5AB3624613F801CD02F801CD994224
:103D6000F9D170470F2A0DD802F1FF3CF2B10CF1E6
:103D7000010C431E8C4411F8012B03F8012F6145FF
:103D8000F9D1704740EA01039B07F0B50C460ED00D
:103D900002F1FF3C03460CF1010C013B8C4411F88D
:103DA000012B03F8012F6145F9D1F0BD7047A2F155
:103DB000100525F00F0501F1200E01F11003AE44AE
:103DC00000F1100C53F8106C4CF8106C53F80C6C9C
:103DD0004CF80C6C53F8086C4CF8086C53F8046CF5
:103DE0004CF8046C103373450CF1100CEAD101EB64
:103DF000050C0CF11001054412F00C0F05F1100335
:103E00008E4602F00F0517D0043D25F00305AC44A3
:103E10000CF1140C041B0F680E1904316145376056
:103E2000F9D12C1D04EB0E01234402F0030202F130
:103E3000FF3C002AAFD1F0BD2A46F8E738B5074D60
:103E40000022044608462A6000F010FA431C00D005
:103E500038BD2B68002BFBD0236038BD74080020D0
:103E600070B50C46084D03460026204611461C46F8
:103E70002E6000F003FA431C00D070BD2B68002BAD
:103E8000FBD0236070BD00BF7408002038B5074D1B
:103E90000022044608462A6000F0F8F9431C00D0CE
:103EA00038BD2B68002BFBD0236038BD7408002080
:103EB00038B50D46084C8446114628461A4600235C
:103EC0002360654600F0EAF9431C00D038BD236842
:103ED000002BFBD02B6038BD7408002038B50D4690
:103EE000084C8446114628461A460023236065463E
:103EF00000F0DCF9431C00D038BD2368002BFBD058
:103F00002B6038BD7408002038B5074D00220446E8
:103F100008462A6000F0D2F9431C00D038BD2B6857
:103F2000002BFBD0236038BD7408002038B50D4647
:103F3000084C8446114628461A46002323606546ED
:103F4000FCF709FB431C00D038BD2368002BFBD0D5
:103F50002B6038BD74080020014B1868704700BF03
:103F60007C010020082802D14FF48050704708B52A
:103F7000FFF7F2FF162303604FF0FF3008BD00BFCC
:103F800038B5074D074C2C1BA41005D0013C55F843
:103F9000043D9847002CF9D1BDE8384000F0A8B99D
:103FA00000430000FC420000844641EA000313F095
:103FB00003036DD1403A41D351F8043B40F8043B30
:103FC00051F8043B40F8043B51F8043B40F8043BF3
:103FD00051F8043B40F8043B51F8043B40F8043BE3
:103FE00051F8043B40F8043B51F8043B40F8043BD3
:103FF00051F8043B40F8043B51F8043B40F8043BC3
:1040000051F8043B40F8043B51F8043B40F8043BB2
:1040100051F8043B40F8043B51F8043B40F8043BA2
:1040200051F8043B40F8043B51F8043B40F8043B92
:1040300051F8043B40F8043B403ABDD2303211D332
:1040400051F8043B40F8043B51F8043B40F8043B72
:1040500051F8043B40F8043B51F8043B40F8043B62
:10406000103AEDD20C3205D351F8043B40F8043B32
:10407000043AF9D2043208D0D2071CBF11F8013B30
:1040800000F8013B01D30B8803806046704700BFF6
:10409000082A13D38B078DD010F003038AD0C3F105
:1040A0000403D21ADB071CBF11F8013B00F8013BE7
:1040B00080D331F8023B20F8023B7BE7043AD9D3A6
:1040C000013A11F8013B00F8013BF9D20B7803707B
:1040D0004B7843708B788370604670472DE9F04FC2
:1040E00089B0DDE91389129F00901C46B8F1000FDA
:1040F00050D00029C3461668019108BF4FF0FF3722
:1041000000259246884605E056F8040B013C00283D
:1041100032D06546AF4239D9002C37D0DBF80030B9
:104120000293DBF80430039332680098D9F8E0C0BA
:104130005B4604A9E047431C2FD000EB050CBC45AF
:1041400036D8019B002BDFD000280BDD08F1FF32B1
:1041500004A902EB000E11F8013B02F8013F724581
:10416000F9D18044DAF8002056F8040B0432CAF87A
:104170000020013C0028CCD10199D84609B1CAF8E9
:1041800000000022C8F800200CF1FF35284609B0D5
:10419000BDE8F08F00F58678ABE7009B05468A21E5
:1041A000002228461960CBF8002009B0BDE8F08F46
:1041B000D846DDF808A0DDF80CB02846C8E900AB09
:1041C00009B0BDE8F08F00BF10B584B0054C06986B
:1041D000009007980190044800680294FFF77EFF62
:1041E00004B010BD100000207C0100202DE9F84330
:1041F0001B4D0646286898460F469146FEF7AAFBD7
:10420000184B1C681CB3286865681F2D22DC4EB94A
:104210006B1C0235636044F82570FEF79DFB00209F
:10422000BDE8F88304EB85010123C1F88890D4F838
:104230008821AB401A43022EC4F88821C1F80881B6
:10424000E6D1D4F88C211A43C4F88C21E0E7064C5F
:104250001C60D8E7FEF780FB4FF0FF30E0E700BFBF
:10426000C00200203C08002078080020024B5822A1
:104270001A604FF0FF30704774080020024B58223C
:104280001A604FF0FF30704774080020024B58222C
:104290001A600020704700BF74080020024B5822AB
:1042A0001A604FF0FF30704774080020024B58220C
:1042B0001A604FF0FF30704774080020044A054927
:1042C0001368002B08BF0B4618441060184670474F
:1042D000080A00200C0A0020FEE700BFF8B500BF66
:1042E000F8BC08BC9E467047412B00003904000012
:1042F000F8B500BFF8BC08BC9E467047110400002A
:0443000000000000B9
:104304004C43000000000020B6010000244A0000D5
:10431400D806002000000000244A0000D80600202F
:1043240000000000244A0000D8060020000000001D
:10433400D8060020CD0000000C0A00200000000078
:084344000C0A0020000000003B
:10434C000090D0030000000003000000F4060020E1
:10435C00430000000000000000000000000000000E
:10436C000000000000000000000000000000000041
:10437C0043000000000000000000000000000000EE
:10438C000000000000000000000000000000000021
:10439C0043000000000000000000000000000000CE
:1043AC000000000000000000000000000000000001
:1043BC0043000000000000000000000000000000AE
:1043CC0000000000000000000000000000000000E1
:1043DC00430000000000000000000000000000008E
:1043EC0000000000000000000000000000000000C1
:1043FC00430000000000000000000000000000006E
:10440C0000000000000000000000000000000000A0
:10441C00430000000000000000000000000000004D
:10442C000000000000000000000000000000000080
:10443C00D93B00006134000000000000C402000001
:10444C005C020000740200007402000074020000A0
:10445C007402000074020000740200007402000078
:10446C007402000074020000FFFFFFFFFFFFFFFF5C
:10447C00FFFFFFFFFFFF00000100415343494900CC
:10448C000000000000000000000000000000000020
:10449C0000000000000000000000415343494900A7
:1044AC000000000000000000000000000000000000
:1044BC00000000000000000000000000800100204F
:1044CC0000000000F40600205C070020C407002058
:1044DC0000000000000000000000000000000000D0
:1044EC0000000000000000000000000000000000C0
:1044FC0000000000000000000000000000000000B0
:10450C00000000000000000000000000000000009F
:10451C00000000000000000000000000000000008F
:10452C00000000000000000000000000000000007F
:10453C00000000000000000000000000000000006F
:10454C00000000000000000000000000000000005F
:10455C00000000000000000001000000000000004E
:10456C000E33CDAB34126DE6ECDE05000B00000013
:10457C00000000000000000000000000000000002F
:10458C00000000000000000000000000000000001F
:10459C00000000000000000000000000000000000F
:1045AC0000000000000000000000000000000000FF
:1045BC0000000000000000000000000000000000EF
:1045CC0000000000000000000000000000000000DF
:1045DC0000000000000000000000000000000000CF
:1045EC0000000000000000000000000000000000BF
:1045FC0000000000000000000000000000000000AF
:10460C0034080020FFFFFFFF000002000000000044
:10461C000000000000000000D0020020D0020020AA
:10462C00D8020020D8020020E0020020E002002086
:10463C00E8020020E8020020F0020020F002002036
:10464C00F8020020F80200200003002000030020E4
:10465C000803002008030020100300201003002092
:10466C001803002018030020200300202003002042
:10467C0028030020280300203003002030030020F2
:10468C0038030020380300204003002040030020A2
:10469C004803002048030020500300205003002052
:1046AC005803002058030020600300206003002002
:1046BC0068030020680300207003002070030020B2
:1046CC007803002078030020800300208003002062
:1046DC008803002088030020900300209003002012
:1046EC009803002098030020A0030020A0030020C2
:1046FC00A8030020A8030020B0030020B003002072
:10470C00B8030020B8030020C0030020C003002021
:10471C00C8030020C8030020D0030020D0030020D1
:10472C00D8030020D8030020E0030020E003002081
:10473C00E8030020E8030020F0030020F003002031
:10474C00F8030020F80300200004002000040020DF
:10475C00080400200804002010040020100400208D
:10476C00180400201804002020040020200400203D
:10477C0028040020280400203004002030040020ED
:10478C00380400203804002040040020400400209D
:10479C00480400204804002050040020500400204D
:1047AC0058040020580400206004002060040020FD
:1047BC0068040020680400207004002070040020AD
:1047CC00780400207804002080040020800400205D
:1047DC00880400208804002090040020900400200D
:1047EC009804002098040020A0040020A0040020BD
:1047FC00A8040020A8040020B0040020B00400206D
:10480C00B8040020B8040020C0040020C00400201C
:10481C00C8040020C8040020D0040020D0040020CC
:10482C00D8040020D8040020E0040020E00400207C
:10483C00E8040020E8040020F0040020F00400202C
:10484C00F8040020F80400200005002000050020DA
:10485C000805002008050020100500201005002088
:10486C001805002018050020200500202005002038
:10487C0028050020280500203005002030050020E8
:10488C003805002038050020400500204005002098
:10489C004805002048050020500500205005002048
:1048AC0058050020580500206005002060050020F8
:1048BC0068050020680500207005002070050020A8
:1048CC007805002078050020800500208005002058
:1048DC008805002088050020900500209005002008
:1048EC009805002098050020A0050020A0050020B8
:1048FC00A8050020A8050020B0050020B005002068
:10490C00B8050020B8050020C0050020C005002017
:10491C00C8050020C8050020D0050020D0050020C7
:10492C00D8050020D8050020E0050020E005002077
:10493C00E8050020E8050020F0050020F005002027
:10494C00F8050020F80500200006002000060020D5
:10495C000806002008060020100600201006002083
:10496C001806002018060020200600202006002033
:10497C0028060020280600203006002030060020E3
:10498C003806002038060020400600204006002093
:10499C004806002048060020500600205006002043
:1049AC0058060020580600206006002060060020F3
:1049BC0068060020680600207006002070060020A3
:1049CC007806002078060020800600208006002053
:1049DC008806002088060020900600209006002003
:1049EC009806002098060020A0060020A0060020B3
:1049FC00A8060020A8060020B0060020B006002063
:104A0C00B8060020B8060020C0060020C006002012
:084A1C00C8060020C8060020B6
:0400000300000FF1F9
:00000001FF
