:1000000000000120D90D0000490E00004B0E000039
:100010004D0E00004F0E0000510E000000000000C9
:10002000000000000000000000000000530E00006F
:10003000550E000000000000570E0000590E000091
:100040005B0E00005B0E00005B0E00005B0E00000C
:100050005B0E00005B0E00005B0E00005B0E0000FC
:100060005B0E00005B0E00005B0E00005B0E0000EC
:100070005B0E00005B0E00005B0E00005B0E0000DC
:100080005B0E00005B0E00005B0E00005B0E0000CC
:100090005B0E00005B0E00005B0E00005B0E0000BC
:1000A0005B0E00005B0E00005B0E00005B0E0000AC
:1000B0005B0E00005B0E000000000000000000006E
:1000C0005B0E00005B0E00005B0E00005B0E00008C
:1000D0005B0E00005B0E00005B0E000000000000E5
:1000E0000000000000000000000000000000000010
:1000F0000000000000000000000000000000000000
:1001000000000000000000000000000000000000EF
:1001100000000000000000000000000000000000DF
:1001200000000000000000000000000000000000CF
:1001300000000000000000000000000000000000BF
:1001400000000000000000000000000000000000AF
:10015000000000000000000000000000000000009F
:10016000000000000000000000000000000000008F
:10017000000000000000000000000000000000007F
:10018000000000000000000000000000000000006F
:10019000000000000000000000000000000000005F
:1001A000000000000000000000000000000000004F
:1001B000000000000000000000000000000000003F
:1001C000000000000000000000000000000000002F
:1001D000000000000000000000000000000000001F
:1001E000000000000000000000000000000000000F
:1001F00000000000000000000000000000000000FF
:08020000940000000100000061
:100208000348044B834202D0034B03B1184770479D
:100218000800002008000020000000000548064BE8
:100228001B1AD90F01EBA301491002D0034B03B1EC
:100238001847704708000020080000200000000050
:1002480010B5064C237843B9FFF7DAFF044B13B116
:100258000448AFF300800123237010BD080000207C
:10026800000000001C11000008B5054B1BB1054932
:100278000548AFF30080BDE80840FFF7CFBF00BFD7
:10028800000000000C0000201C110000A3F5803ABB
:10029800704700BF174B002B08BF134B9D46FFF755
:1002A800F5FF00218B460F461348144A121A00F036
:1002B800DFFD0E4B002B00D098470D4B002B00D0D4
:1002C80098470020002104000D000D48002802D0A6
:1002D8000C4800F0B1FE00F019FE2000290000F0E3
:1002E80052F800F0B7FD00BF000008000000000051
:1002F800000000000000012008000020C0010020CC
:10030800411000004D10000080B485B000AF786047
:100318000023FB600DE00023BB6003E000BFBB6867
:100328000133BB60BB68B3F57A5FF7D3FB68013371
:10033800FB60FA687B689A42EDD300BF00BF1437B0
:10034800BD4680BC704780B483B000AF11237B608A
:1003580010E04FF0A043D3F8183501217A6801FA6C
:1003680002F211464FF0A0420B43C2F818357B68E1
:1003780001337B607B68142BEBDD00BF00BF0C37BB
:10038800BD4680BC704780B584B000AF00F062F80D
:1003980000F0D0F8FFF7D7FF0023FB604FF0A04331
:1003A800D3F810355B0B03F00103002B05D1412076
:1003B80000F082F8C820FFF7A7FF4FF0A043D3F85A
:1003C80010359B0B03F00103002B05D1422000F0F0
:1003D80073F8C820FFF798FF00F094F80346FB7005
:1003E800FB78184600F068F8FB78002B27D0FB68EC
:1003F800002B12D01123BB6009E00122BB689A4090
:100408004FF0A043C3F80825BB680133BB60BB6845
:10041800142BF2DD0023FB6011E011237B6009E05F
:1004280001227B689A404FF0A043C3F80C257B68F3
:1004380001337B607B68142BF2DD0123FB60FB78C2
:10044800712B00D0AAE700BF002318461037BD461D
:1004580080BD000080B400AF4FF0A0434022C3F835
:1004680018254FF0A0434FF48072C3F81C25104B99
:100478000622C3F80C250E4B0822C3F814250C4B92
:100488000C4AC3F824250A4B4FF0FF32C3F808255D
:10049800074B4FF0FF32C3F81025054B0422C3F871
:1004A8000025034B01221A6000BFBD4680BC70477F
:1004B800002000400050270080B483B000AF0346FE
:1004C800FB710F4B0022C3F81C210D4B01229A60CF
:1004D8000B4AFB79C2F81C3500E000BF084BD3F883
:1004E8001C31002BF9D0064B0022C3F81C21044B09
:1004F8000122DA6000BF0C37BD4680BC704700BFE0
:100508000020004080B400AF094BD3F80831012B1C
:1005180008D1074B0022C3F80821054BD3F818353A
:10052800DBB200E000231846BD4680BC704700BF20
:100538000020004080B400AF4FF0A0430C22C3F865
:1005480034274FF0A0430C22C3F8382700BFBD461C
:1005580080BC704780B483B000AF1E4B1B68B3F1FA
:10056800FF3F0AD11C4B1B68DBB27B601B4B1B682F
:100578001B0903F00F033B6005E0164B1B687B600B
:10058800174B1B683B607B68062B1DD13B68033B00
:10059800042B17D801A252F823F000BFB9050000B8
:1005A800BD050000C1050000C5050000C905000023
:1005B80001230AE0012308E0012306E0012304E007
:1005C800012302E0012300E0002318460C37BD4652
:1005D80080BC704730010010E00F00F0E80F00F019
:1005E8003401001080B483B000AF184B1B68DBB235
:1005F8007B60174B1B681B0903F00F033B607B688C
:10060800062B1DD13B68033B042B17D801A252F8D7
:1006180023F000BF3106000035060000390600004F
:100628003D0600004106000001230AE0002308E01F
:10063800002306E0002304E0002302E0002300E09A
:10064800002318460C37BD4680BC7047E00F00F009
:10065800E80F00F080B483B000AF1E4B1B68B3F105
:10066800FF3F0AD11C4B1B68DBB27B601B4B1B682E
:100678001B0903F00F033B6005E0164B1B687B600A
:10068800174B1B683B607B68062B1DD13B68033BFF
:10069800042B17D801A252F823F000BFB9060000B6
:1006A800BD060000C1060000C5060000C90600001E
:1006B80001230AE0012308E0012306E0012304E006
:1006C800012302E0012300E0002318460C37BD4651
:1006D80080BC704730010010E00F00F0E80F00F018
:1006E8003401001080B483B000AF184B1B68DBB234
:1006F8007B60174B1B681B0903F00F033B607B688B
:10070800062B1DD13B68033B042B17D801A252F8D6
:1007180023F000BF3107000035070000390700004B
:100728003D0700004107000001230AE0002308E01C
:10073800002306E0002304E0002302E0002300E099
:10074800002318460C37BD4680BC7047E00F00F008
:10075800E80F00F080B483B000AF1E4B1B68B3F104
:10076800FF3F0AD11C4B1B68DBB27B601B4B1B682D
:100778001B0903F00F033B6005E0164B1B687B6009
:10078800174B1B683B607B68062B1DD13B68033BFE
:10079800042B17D801A252F823F000BFB9070000B4
:1007A800BD070000C1070000C5070000C907000019
:1007B80001230AE0012308E0012306E0012304E005
:1007C800012302E0012300E0002318460C37BD4650
:1007D80080BC704730010010E00F00F0E80F00F017
:1007E8003401001080B483B000AF184B1B68DBB233
:1007F8007B60174B1B681B0903F00F033B607B688A
:10080800062B1DD13B68033B042B17D801A252F8D5
:1008180023F000BF31080000350800003908000047
:100828003D0800004108000001230AE0002308E019
:10083800002306E0002304E0002302E0002300E098
:10084800002318460C37BD4680BC7047E00F00F007
:10085800E80F00F080B483B000AF184B1B68DBB220
:100868007B60174B1B681B0903F00F033B607B6819
:10087800062B1DD13B68033B042B17D801A252F865
:1008880023F000BFA1080000A5080000A908000087
:10089800AD080000B108000001230AE0002308E0C9
:1008A800002306E0002304E0002302E0002300E028
:1008B800002318460C37BD4680BC7047E00F00F097
:1008C800E80F00F080B483B000AF1E4B1B68B3F193
:1008D800FF3F0AD11C4B1B68DBB27B601B4B1B68BC
:1008E8001B0903F00F033B6005E0164B1B687B6098
:1008F800174B1B683B607B68062B1DD13B68033B8D
:10090800042B17D801A252F823F000BF29090000D0
:100918002D090000310900003509000039090000DF
:1009280000230AE0002308E0012306E0012304E095
:10093800012302E0012300E0002318460C37BD46DE
:1009480080BC704730010010E00F00F0E80F00F0A5
:100958003401001080B483B000AF1E4B1B68B3F1A4
:10096800FF3F0AD11C4B1B68DBB27B601B4B1B682B
:100978001B0903F00F033B6005E0164B1B687B6007
:10098800174B1B683B607B68062B1DD13B68033BFC
:10099800042B17D801A252F823F000BFB9090000B0
:1009A800BD090000C1090000C5090000C90900000F
:1009B80001230AE0012308E0012306E0012304E003
:1009C800012302E0012300E0002318460C37BD464E
:1009D80080BC704730010010E00F00F0E80F00F015
:1009E8003401001080B483B000AF1E4B1B68B3F114
:1009F800FF3F0AD11C4B1B68DBB27B601B4B1B689B
:100A08001B0903F00F033B6005E0164B1B687B6076
:100A1800174B1B683B607B68062B1DD13B68033B6B
:100A2800042B17D801A252F823F000BF490A00008E
:100A38004D0A0000510A0000550A0000590A00003A
:100A480001230AE0012308E0012306E0012304E072
:100A5800012302E0012300E0002318460C37BD46BD
:100A680080BC704730010010E00F00F0E80F00F084
:100A78003401001080B483B000AF164B1B687B6054
:100A8800154B1B683B607B68062B1DD13B68033BFD
:100A9800042B17D801A252F823F000BFB90A0000AE
:100AA800BD0A0000C10A0000C50A0000C90A00000A
:100AB80000230AE0002308E0002306E0012304E005
:100AC800012302E0012300E0002318460C37BD464D
:100AD80080BC7047300100103401001080B483B02E
:100AE80000AF164B1B687B60154B1B683B607B682F
:100AF800062B1DD13B68033B042B17D801A252F8E3
:100B080023F000BF210B0000250B0000290B00007B
:100B18002D0B0000310B000000230AE0002308E041
:100B2800002306E0002304E0012302E0012300E0A3
:100B3800002318460C37BD4680BC704730010010B2
:100B48003401001080B500AFFFF7C8FF0346002B43
:100B580007D04FF010234FF08042D3F80832C2F884
:100B6800583500BF80BD000080B400AF034B044A75
:100B78001A6000BFBD4680BC704700BF000000205F
:100B88000090D00380B500AFFFF7E4FC0346002BCC
:100B980006D07F4B1B681B0A7E4A03F01F031360B5
:100BA800FFF720FD0346002B02D07B4B7B4A1A60DF
:100BB800FFF750FD0346002B06D0794B1B685B0BF3
:100BC800784A03F007031360FFF78CFD0346002BF8
:100BD80005D0754BDB68744A23F08073D360FFF748
:100BE800B9FD0346002B0ED04FF080430022C3F816
:100BF8000C214FF080430022C3F810214FF08043AE
:100C08000022C3F83825FFF7EDFD0346002B02D07C
:100C1800664B03221A60FFF71DFE0346002B0BD01C
:100C2800634B05221A60634B01221A60624B002253
:100C38001A60624B3F221A60FFF744FE0346002BFE
:100C480076D04FF080535E4AD3F80434C2F820358A
:100C58004FF080535A4AD3F80834C2F824354FF07D
:100C68008053574AD3F80C34C2F828354FF08053D4
:100C7800534AD3F81034C2F82C354FF08053504AF9
:100C8800D3F81434C2F830354FF080534C4AD3F8B7
:100C98001834C2F834354FF08053494AD3F81C341D
:100CA800C2F840354FF08053454AD3F82034C2F893
:100CB80044354FF08053424AD3F82434C2F84835BB
:100CC8004FF080533E4AD3F82834C2F84C354FF0E1
:100CD80080533B4AD3F82C34C2F850354FF0805338
:100CE800374AD3F83034C2F854354FF08053344A79
:100CF800D3F83434C2F860354FF08053304AD3F813
:100D08003834C2F864354FF080532D4AD3F83C3458
:100D1800C2F868354FF08053294AD3F84034C2F8F6
:100D28006C354FF08053264AD3F84434C2F87035F6
:100D3800FFF710FE0346002B05D0224B1B68224A02
:100D480003F04F031360FFF74DFE0346002B0DD051
:100D58004FF08043D3F8003403F00103002B05D093
:100D68004FF080436FF00102C3F80024FFF782FEC2
:100D78000346002B05D0154B1B68144A43F48063C7
:100D88001360FFF7DFFEFFF7EFFE00BF80BD00BF77
:100D9800240300104035014074C007400DF0ADBA7F
:100DA800440200103C050040F0ED00E0A0050040C2
:100DB800105600408856004018560040145600400F
:100DC80000C0004058020010E40E00403C170040EC
:100DD8000F49104A104B00F010F81049104A114BF7
:100DE80000F00BF81049114A114B00F006F81149B0
:100DF800114A124B00F001F806E0521A03DD043ADA
:100E080098588850FBDC7047FFF7BCFEFFF742FAA2
:100E180000000020080000206811000008000020E1
:100E280008000020701100000800002008000020C1
:100E38007011000008000020080000207011000058
:100E4800FEE7FEE7FEE7FEE7FEE7FEE7FEE7FEE772
:100E5800FEE7FEE708B50021044600F08DF8034BD5
:100E68001B6803B19847204600F040F92400002091
:100E7800830730B546D08418844604E003F8011B84
:100E88009D0704D09C46A4456346F7D130BD013A7E
:100E98000244A2EB0C02032A29D9CCB204EB0424A5
:100EA8000F2A04EB04442FD9A2F1100C2CF00F0CDC
:100EB80003F11005AC44C3E90044C3E9024410330C
:100EC8006345F8D112F00C0F02F00F0E18D02EF077
:100ED800030C9C44AEF104051A4642F8044B6245E3
:100EE800FBD125F0030404330EF003022344002A47
:100EF800CCD0C9B21A4403F8011B9342FBD130BDD0
:100F08007246F4E70346C6E79646E0E770B50F4B2E
:100F18000F4DAB42A3EB050607D0B610002455F8D9
:100F2800043B01349847A642F9D800F0E1F8094D8E
:100F3800094B5E1BAB424FEAA60606D0002455F8C3
:100F4800043B01349847A642F9D870BD041100004B
:100F580004110000041100000C110000704700BFCC
:100F6800704700BF024B13B1024800F065B87047E4
:100F7800000000004D1000002DE9F04F2C4B2D4FC4
:100F880083B082461868CDF804A08B46FFF7E6FFC9
:100F98003E68AEB14FF000094FF001087468651E55
:100FA8000ED4013406EB8404BBF1000F0FD0D4F843
:100FB80000315B450BD0013D6A1CA4F10404F6D155
:100FC8001B4B186803B0BDE8F04FFFF7C9BF736843
:100FD8002268013BAB420CBF7560C4F8009072B147
:100FE800D6F88811D6F804A008FA05F30B420CD1FC
:100FF800904773683A68534513D1B24211D1013D05
:101008006B1CA4F10404CFD1DAE7D6F88C01D4F82C
:101018008010034209D10198904773683A68534594
:10102800EBD0002ACCD01646B8E708469047E0E750
:10103800040000202C000020002301461A46184610
:1010480000F014B838B5074D074C2C1BA41005D078
:10105800013C55F8043D9847002CF9D1BDE83840CB
:1010680000F050B81C110000181100002DE9F843D9
:101078001B4D0646286898460F469146FFF76EFFB7
:10108800184B1C681CB3286865681F2D22DC4EB9F4
:101098006B1C0235636044F82570FFF761FF002080
:1010A800BDE8F88304EB85010123C1F88890D4F8E2
:1010B8008821AB401A43022EC4F88821C1F8088160
:1010C800E6D1D4F88C211A43C4F88C21E0E7064C09
:1010D8001C60D8E7FFF744FF4FF0FF30E0E700BFA0
:1010E800040000202C00002030000020FEE700BF94
:1010F800F8B500BFF8BC08BC9E4670476D0F0000ED
:1011080071020000F8B500BFF8BC08BC9E467047E5
:08111800490200000000000084
:1011200068110000000000200200000070110000A3
:1011300008000020000000007011000008000020DE
:1011400000000000701100000800002000000000F6
:10115000080000206E000000C00100200000000018
:08116000C001002000000000A6
:081168000090D00328000020D4
:0400000300000DD913
:00000001FF
